:020000021000EC
:10200000C00A0020553F0100AF2F0300AF2F03008F
:102010009D490300AF2F0300AF2F0300AF2F030034
:10202000AF2F0300AF2F0300AF2F0300AF2F03002C
:10203000AF2F030034E50300972D0300AF2F0300FB
:10204000AF2F0300AF2F0300AF2F0300AF2F03000C
:10205000AF2F0300AF2F0300ED310300AF2F0300BC
:10206000AF2F0300AF2F0300AF2F0300AF2F0300EC
:10207000419F0100AF2F0300AF2F0300FD38010087
:102080006B2E0300AF2F0300AF2F0300AF2F030011
:10209000AF2F030035480100AF2F0300AF2F03001F
:1020A000AF2F0300B14901008D490100AF2F03009C
:1020B000AF2F03003D080300AF2F030029120300D8
:1020C000E1DA0300DDDA03001D0A0300EDDA0300A4
:1020D000E5DA030001120300E9DA030069120300E4
:1020E000C5EB020099ED0200D5120300AF2F0300EB
:1020F000AF2F0300AF2F0300AF2F0300AF2F03005C
:10210000AF2F0300AF2F0300AF2F0300AF2F03004B
:10211000AF2F0300AF2F0300AF2F0300AF2F03003B
:10212000AF2F0300AF2F0300AF2F0300AF2F03002B
:10213000AF2F0300AF2F0300AF2F0300AF2F03001B
:10214000013800D0FCE770472DE9F04F2DED088BEA
:102150008DB09DED1E7B09EE903ADDE920430A9398
:10216000229B09EE100A8A460792069351EC170B40
:1021700053EC172BB0EE478AF0EE678A1FF052FD42
:1021800080B14FF0FF3251EC180BCF4B1FF072FDB6
:1021900040B94FF0FF326FF4801351EC180B1FF071
:1021A0004BFD98B1069B514622930A9B19EE100AEB
:1021B000CDE9204319EE903A079A8DED1E8B0DB0B4
:1021C000BDEC088BBDE8F04F00F0A2B9002200235F
:1021D00051EC180B1FF030FD002800F0448118EE80
:1021E000903A18EE108A03F10049069BC9F30A5091
:1021F00013F48063A0F2FF3008BF06240B931FF096
:102200003FFAA1A3D3E900231FF0A4FAA0A3D3E9C6
:1022100000231FF0E9F8C9F313050F4645F07F517D
:1022200006460022A94B404641F440111FF0DAF85F
:1022300099A3D3E900231FF08DFA02460B463046DE
:1022400039461FF0D1F81FF01FFD83461FF018FA22
:1022500093A3D3E9002306460F461FF07BFA002222
:102260009B4B1FF0C1F81FF00FFD8FA3D3E9002394
:102270000546394630461FF06DFA064628460F4699
:102280001FF0FEF98AA3D3E900231FF063FA024688
:102290000B46304639461FF0A5F802460B46064667
:1022A0000F461FF057FA324641EC1A0B3B463046B8
:1022B00039461FF099F8002241EC1B0B854B51EC7D
:1022C0001A0B1FF071FB0022834B1FF08DF80246A2
:1022D0000B4651EC1A0B1FF067FB00227F4B1FF0DF
:1022E00083F802460B4651EC1A0B1FF05DFB324699
:1022F00041EC1A0B3B4600204FF080411FF072F872
:1023000002460B4651EC1A0B1FF06EF802460B46C4
:1023100051EC1B0B1FF048FB05F2FF350022704B00
:102320001FF062F800222B051FF014FA42464B46BC
:1023300006460F461FF09EFC002840F09780CDE92E
:1023400008670BF16303C72B069B34BF04250525E3
:10235000190521D558A3D3E90023404649461FF06B
:102360007FFC002800F0BE8055A3D3E9002340463F
:1023700049461FF061FC002800F0B48000255C4550
:10238000CCBFA4EB0B000024AB46069BC8BF00F1FA
:10239000FF3443F4806306930A9B9D4238BF5E1B63
:1023A000069B28BF002613F0020702D0002D18BF9D
:1023B0000026BBF1000F07D0DDE90823404649465F
:1023C0001FF0F2FA804689460022002351EC180BD8
:1023D0001FF032FC10B109F100439946069B5146AB
:1023E00023F40063CDE9036319EE100A19EE903A65
:1023F000CDE90089079A029400F08AF875B3069B2C
:10240000024613F0200F00F1010619EE903A14BFB6
:1024100045206520514619EE104AA04705230022A9
:1024200005930A238BEAEB70CDE90232A0EBEB7047
:102430004FEADB73013D0193009019EE903A32466A
:10244000514619EE100A049523F037FC37B1079B6B
:10245000C51A079B58190A9BAB424CD80DB0BDEC6E
:10246000088BBDE8F08F59EC188BBEE60022304691
:102470003946194B1FF098FA0BF1FF3BCDE90801E3
:102480005FE700BFAFF30080FB799F501344D33F59
:10249000B3C8608B288AC63F61436F63A787D23F6A
:1024A00071A379094F930A401655B5BBB16B024031
:1024B000EF39FAFE422EE63F2D431CEBE2361A3F7F
:1024C0000000000080842E41FFFFEF7F0000F83FF6
:1024D0000000E03F00002C400000244000001840B5
:1024E0000000F03F002C3FF457AF0B9B002B3FF454
:1024F00053AF013C50E7024619EE903A5146202076
:1025000019EE104AA0470135A3E700BF0000000004
:102510002DE9F04F2DED088B8FB0DDE920AB08EEF3
:10252000100A0F4608EE902A09EE103ADDE9225310
:102530005246049350465B465946249E1FF072FB58
:10254000A0B9049B2396229303232193B84B209395
:1025500018EE902A19EE103A394618EE100A0FB00C
:10256000BDEC088BBDE8F04F23F0DFBA4FF0FF322F
:102570006FF48013504659461FF05EFB30B1049B48
:102580002396229304232193AA4BE0E74FF0FF32D6
:1025900050465946A84B1FF06DFB70B1A74A06F094
:1025A0000403002B08BF0322A54B1CBF13460422C3
:1025B00004992396CDE92121C9E7504698A3D3E990
:1025C000002359461FF056FB38B997A3D3E90023DF
:1025D000504659461FF030FB98B1049B18EE902AE4
:1025E000CDE92253394619EE103A18EE100ACDE91A
:1025F00020AB24960FB0BDEC088BBDE8F04FFFF781
:10260000A3BD00220023504659461FF015FB0028A9
:1026100000F081805B465246002000211EF0E2FE61
:10262000012382468B46059316F4806F08BF06256A
:102630003021A94606ABA5F12002B9F1090FA5EB9F
:10264000090406D909F1FF394A4503F8011BF4D101
:102650002024594650461FF017FB7A4B054603EBE2
:10266000C90393ED007BB0EE47AAF0EE67AA1FF016
:1026700007F802460B46504659461EF0B3FE53EC8F
:102680001A2B1FF067F802460B4643EC1B2B1FF07A
:1026900023FB80461EF0E4FF02460B4651EC1B0B69
:1026A0001EF0A0FE02460B4643EC1B2B0022664B9D
:1026B0001FF0E0FA88B308F1010840461EF0D0FF91
:1026C00002460B4651EC1A0B1FF0C0FA10B14FF046
:1026D00000080135B9F1000F51D128461EF0D0FF96
:1026E00002460B46504659461EF07CFE0022564BD1
:1026F000804689461FF0A0FA30B100224046494684
:10270000514B1FF0B7FA10B1E80700D5013506AB01
:102710000A2223445AE0059086E7002251EC1B0B65
:10272000494B1FF089FA0028D4D1B8F1000F02D02C
:1027300018F0010FCED008F10108CBE7B8FBF1F09B
:1027400001FB1082B8F1090F02F1300209F1FF39E3
:1027500004F1010403F8012B28D83021A14406AA72
:10276000202C11D04C4504F1010321D104F1380291
:102770000DEB02042E2204F8202C1C46C7E70A2188
:1027800006AB2344202CD9D106F00303012B06AB62
:1027900039D1049A002A36D0059A12B916F00C0FD6
:1027A00002D0049A013A0492302214E08046E9E70C
:1027B000A1541C46D4E795FBF2F102FB11553035CC
:1027C00003F8015B01340D460029DDD0202CF2D145
:1027D000DAE71A5501340499A14214D9202CF8D112
:1027E000049A0093CDE9014219EE103A18EE902AAE
:1027F000394618EE100A039623F097F90FB0BDEC96
:10280000088BBDE8F08F202CEAD0059AF2B12D217B
:1028100004F138026A4402F8201C0134E0E700BFEA
:102820000000000065CDCD410000000065CDCDC1A8
:10283000FBE90300FFE90300FFFFEF7FF6E9030078
:10284000F2E9030008EA03000000E03F710704D545
:1028500004F138022B216A44DDE73207C0D504F1C8
:10286000380220216A44D6E7002370B5404C054663
:102870008AB0E36318B1008823600DF0F7FA3D4891
:102880002AF0DBFB3C4E3D4B304633603C4B7360E3
:1028900026F007F80021304618F068F832A3D3E993
:1028A0000023A062C4E9062326F006F8D4E9062333
:1028B000194310434FF0FF33C4E90601CDE900018D
:1028C0004FF0FF32A06A2AF021FC02224FF0FF31C4
:1028D000A06A2AF020FC01200DF060F84FF400738C
:1028E00000222849A06A2AF06FFCB0F5007F38D199
:1028F00000239422CDE9073309933C23CDE9033229
:1029000005939623A06A03A9069318F04BF935B3F3
:10291000287C0DF0C7FC0546F0B9A06A2AF035FD09
:102920000DF068FC0DF01CF820B14FF48070002110
:102930000BF0DEFD0DF024F820B14FF40060002113
:102940000BF0D6FD25F07EFF012018F063F80E4A4B
:102950000E49A06A25F0A3FF28460AB070BDFF20EB
:10296000D7E70725F8E700BF0DD501552000000087
:10297000C80F0020690345ECE82700206100020031
:10298000DC270020DC25002047880300878803001F
:1029900010B5054C237833B9044B13B1044800E05B
:1029A00000BF0123237010BD18120020000000009A
:1029B000EC35040008B5034B1BB10349034800E0A4
:1029C00000BF08BD000000001C120020EC35040010
:1029D000A3F5803A704700BF174B002B08BF134B7D
:1029E0009D46FFF7F5FF00218B460F461348144A1A
:1029F000121A2BF0C8F80E4B002B00D098470D4B45
:102A0000002B00D098470020002104000D000D4845
:102A1000002802D00C4800E000BF1FF029FB200076
:102A2000290020F0ACF91FF00FFB00BF00000800E8
:102A30000000000000000000C00A0020540F002029
:102A40000C2F002000000000000000002DE9F04FD6
:102A5000424FDFF848A13D78DFF834819AF8003022
:102A6000642DB3B088F8003058D100243C4B3D4A67
:102A7000D3F800901C603C4B3C491C603C4B1460FC
:102A80001C603C4BC8221C603B4B68461C60B9FB79
:102A9000F5F52BF051F8C822214634482BF073F895
:102AA0006B46364EDFF8F8B03068CBF8005033F89C
:102AB000022B0134521B642C02FB0200F7D1306060
:102AC000B0FBF4F01EF0CCFD41EC100B20F04AF806
:102AD00051EC100B1FF000F9294C206020F017FA80
:102AE00020F016FA274B22681868274921F0A0FD2C
:102AF00041F2883322689A4208D947F20C6399451B
:102B000082BF9AF8003001338AF80030002388F839
:102B100001203B70CBF80030236033601B48022259
:102B20001B211B4B007810F0F7F898B1022001F040
:102B300085F878B1134C1749206821F079FD20F011
:102B4000E6F920F0E5F91449206833B0BDE8F04F0C
:102B500021F06EBD33B0BDE8F08F00BFD82D00204E
:102B600038120020341200203C120020BC2C00201F
:102B7000B4120020B8120020BC120020C4120020A1
:102B8000B01200200816002098DD0300D42D00208C
:102B9000D52D00209EDD0300A3DD0300D72D0020EE
:102BA000C012002010B58EB000F00AFE0023CDE95F
:102BB0000533CDE901330393ADF810300793ADF839
:102BC0002030324B09A9099305AB0A9301AB0C9352
:102BD0000E23ADF834303B238DF814300123ADF8CB
:102BE0002C302B4B186801F001FC8DF803009DF888
:102BF0000330002B47D1274A9DF8053011689DF816
:102C000006000B449DF8041003EB012322491360D6
:102C10000B689DF80720134403EB00230B601F494A
:102C200002EB00220B781E48642B20F813201D486D
:102C30009DF80920046818BF013322449DF808401C
:102C400018BF0B7002EB0422026017489DF80D209C
:102C5000046822449DF80C4002EB042202601348F1
:102C60009DF80F20046822449DF80E4002EB0422D8
:102C700002600F489DF81120046822449DF810401E
:102C800002EB042202600EB010BD00BFD0000400B1
:102C9000E40A00203412002038120020D82D002031
:102CA000BC2C00203C120020B4120020B8120020DE
:102CB000BC12002010B5032000F0C0FF60B1144C1E
:102CC0001449206821F0B4FC20F021F920F020F90B
:102CD0001149206821F0ACFC00F08EFFB0B1022059
:102CE00000F0ACFF0A4C58B10C49206821F0A0FC60
:102CF00020F00DF920F00CF90949206821F098FC2A
:102D000020680849BDE8104021F092BC10BD00BF0A
:102D100008160020BFDD0300C4DD03009EDD0300B4
:102D2000E4DD0300DDDE030070B50368A54A23F48B
:102D30007F4323F00703934204468AB000F02D81BD
:102D400002F18072934200F063819F4A934240F007
:102D50002281032000F072FF90B19C4D9C492868AD
:102D600021F066FC20F0D3F820F0D2F8638999496D
:102D7000019323890093E388A288286821F058FCF6
:102D80000DF11F0108A80FF0DDFF054610B38F4CB1
:102D90009149206821F04CFC9049206821F048FCC2
:102DA00020F0B5F820F0B4F88D4B8E4A00938E4990
:102DB0007C23206821F03CFC8C492B468C4A2068FF
:102DC00021F036FC284600F07FFF8A49206821F078
:102DD0002FFCFEE7032000F031FF20B37B4C7C4941
:102DE000206821F025FC20F092F820F091F89DF861
:102DF00020309DF81F0004939DF821307E490393F5
:102E00009DF822307D4A02939DF82330002808BFA8
:102E10000A4601939DF824307949009320689DF873
:102E2000253021F005FC774E30460FF0D3FE0546E5
:102E300010B3664C6849206821F0FAFB67492068A6
:102E400021F0F6FB20F063F820F062F8644B654A4D
:102E5000009365498923206821F0EAFB63492B46EA
:102E6000634A206821F0E4FB284600F02DFF614909
:102E7000206821F0DDFBFEE7022130780FF0E4FE50
:102E8000044610B3514D5449286821F0D1FB5349F1
:102E9000286821F0CDFB20F03AF820F039F8504BAB
:102EA000504A009350498E23286821F0C1FB4F49B6
:102EB00023464F4A286821F0BBFB204600F004FF60
:102EC0004C49286821F0B4FBFEE7A022034600909D
:102ED000114630780FF096FE054610B33B4C3E4944
:102EE000206821F0A5FB3D49206821F0A1FB20F0DE
:102EF0000EF820F00DF83A4B3A4A00933A499723DE
:102F0000206821F095FB39492B46394A206821F089
:102F10008FFB284600F0D8FE3649206821F088FB58
:102F2000FEE7022130780FF0A3FE054610B3274CD0
:102F30002949206821F07CFB2849206821F078FB92
:102F40001FF0E5FF1FF0E4FF254B264A00932649BA
:102F50009C23206821F06CFB24492B46244A2068DE
:102F600021F066FB284600F0AFFE2249206821F0E0
:102F70005FFBFEE7032000F061FE60B1134C1449D3
:102F8000206821F055FB1FF0C2FF1FF0C1FF1E4952
:102F9000206821F04DFB0AB070BD032000F04EFE0A
:102FA0000028F8D0094C0A49206821F041FB1FF0A5
:102FB000AEFF1FF0ADFF154920680AB0BDE87040B4
:102FC00021F036BBA0000600A0000100081600207A
:102FD000BFDD030040DE0300DDDE030067DE03002B
:102FE0007ADF03006CDE030075DE030084DE03007D
:102FF00081DE030099DE030032DE030024DE0300DD
:10300000AADE0300520D0020DFDE0300F4DE030021
:10301000032000F013FE60B1384C3949206821F0DC
:1030200007FB1FF074FF1FF073FF3649206821F083
:10303000FFFA354C022120780FF006FE054610B34A
:103040002E4C3249206821F0F3FA3149206821F0F2
:10305000EFFA1FF05CFF1FF05BFF2E4B2E4A009330
:103060002E49B823206821F0E3FA2D492B462D4A3A
:10307000206821F0DDFA284600F026FE2A49206863
:1030800021F0D6FAFEE7022120780FF0F1FD054687
:1030900010B31A4C1D49206821F0CAFA1C49206857
:1030A00021F0C6FA1FF033FF1FF032FF194B1A4A06
:1030B00000931A49BD23206821F0BAFA18492B461B
:1030C000184A206821F0B4FA284600F0FDFD1649A0
:1030D000206821F0ADFAFEE7032000F0AFFD0028E4
:1030E0003FF459AF054C0649206821F0A1FA1FF0C2
:1030F0000EFF1FF00DFF0D495EE700BF0816002010
:10310000BFDD030007DF0300520D0020DDDE0300FA
:1031100067DE03007ADF03006CDE030075DE030068
:1031200084DE030081DE030099DE0300DFDE03009E
:1031300073B5294800F0FEFD0646284800F0FAFD68
:10314000054616B3264C2749206821F071FA264916
:10315000206821F06DFA1FF0DAFE1FF0D9FE234B34
:10316000234A244900932068DC2321F061FA224994
:103170003346224A206821F05BFA304600F0A4FD75
:103180001F49206821F054FAFEE710B3144C15498A
:10319000206821F04DFA1449206821F049FA1FF007
:1031A000B6FE1FF0B5FE114B114A1249009320687C
:1031B000DD2321F03DFA10492B46124A206821F008
:1031C00037FA284600F080FD0D49206821F030FADA
:1031D000FEE702B070BD00BF401200207812002050
:1031E00008160020DDDE030067DE03005FDF03005A
:1031F0006CDE030075DE030084DE03001ADF0300CB
:1032000099DE03001EDF0300394B37B51870002923
:1032100064D0012500234FF47A71364A0095364870
:1032200000F0A2FD0095044600230A21334A3448E9
:1032300000F09AFD054610B3324C3349206821F066
:10324000F7F93249206821F0F3F91FF060FE1FF012
:103250005FFE2F4B2F4A00932F49FD23206821F05A
:10326000E7F92E492B462E4A206821F0E1F928463D
:1032700000F02AFD2B49206821F0DAF9FEE714B3AB
:10328000204D2149286821F0D3F92049286821F0F0
:10329000CFF91FF03CFE1FF03BFE1D4B1D4A009373
:1032A0001D49FF23286821F0C3F91C4923461E4A03
:1032B000286821F0BDF9204600F006FD194928686C
:1032C00021F0B6F9FEE721460B48FFF7BFFB214688
:1032D0000B4803B0BDE83040FFF764BC084800F07D
:1032E00029FD054803B0BDE8304000F023BD00BF14
:1032F000D42D00204D2A010078120020A52B0100BA
:103300004012002008160020DDDE030067DE030007
:1033100028DF03006CDE030075DE030084DE03009B
:103320001ADF030099DE03001EDF030030B58BB007
:103330000DF11F0108A80FF005FD054618B3274C35
:103340002749206821F074F92649206821F070F996
:103350001FF0DDFD1FF0DCFD234B244A24490093C0
:10336000206840F28B1321F063F922492B46224A50
:10337000206821F05DF9284600F0A6FC1F4920686E
:1033800021F056F9FEE7032000F058FC20B3134C5F
:103390001B49206821F04CF91FF0B9FD1FF0B8FD62
:1033A0009DF820309DF81F0004939DF821301549A9
:1033B00003939DF82230144A02939DF8233000288D
:1033C00008BF0A4601939DF82430104900932068F5
:1033D0009DF8253021F02CF90BB030BD08160020E7
:1033E000DDDE030067DE030022DF03006CDE030086
:1033F00075DE030084DE030081DE030099DE030036
:10340000BFDD030032DE030024DE0300AADE03007A
:1034100030B503687F4A23F47F4323F007039342C8
:1034200089B040F0F4800822002112207A4B0FF07E
:1034300045FC044610B3794D7949286821F0F8F825
:103440007849286821F0F4F81FF061FD1FF060FD55
:10345000754B764A009376493D23286821F0E8F8B9
:1034600074492346744A286821F0E2F8204600F0A7
:103470002BFC7249286821F0DBF8FEE701460322A5
:1034800014206F4B0FF01AFC044610B3634D6449CF
:10349000286821F0CDF86349286821F0C9F81FF0A9
:1034A00036FD1FF035FD604B604A009360494B23A9
:1034B000286821F0BDF85F4923465F4A286821F05B
:1034C000B7F8204600F000FC5C49286821F0B0F80D
:1034D000FEE70146052216205A4B0FF0EFFB05468A
:1034E00010B34E4C4E49206821F0A2F84D49206897
:1034F00021F09EF81FF00BFD1FF00AFD4A4B4B4ACE
:1035000000934B495923206821F092F849492B46F2
:10351000494A206821F08CF8284600F0D5FB47493D
:10352000206821F085F8FEE70DF10F0104A80FF0E7
:1035300009FC044610B3394D3949286821F078F860
:103540003849286821F074F81FF0E1FC1FF0E0FC16
:10355000354B364A009336496423286821F068F8D1
:1035600034492346344A286821F062F8204600F0A6
:10357000ABFB3249286821F05BF8FEE79DF8153077
:1035800001468DF818309DF8143008228DF8193056
:103590009DF8133018208DF81A30FF238DF81B305A
:1035A000FE238DF81C309DF812308DF81D309DF8EB
:1035B00011308DF81E309DF810308DF81F3006AB9D
:1035C0000FF07CFB054610B3144C1549206821F020
:1035D0002FF81449206821F02BF81FF098FC1FF0F9
:1035E00097FC114B114A009311497423206821F074
:1035F0001FF810492B46104A206821F019F8284678
:1036000000F062FB0D49206821F012F8FEE709B0D6
:1036100030BD00BFA000010089DF030008160020B4
:10362000DDDE030067DE0300C4DF030092DF03007A
:1036300075DE030084DE030081DE030099DE0300F3
:10364000BADF0300BEDF030030B50A4C0A4B226824
:103650000A4D1A600A4B85B02B600A4B019305F0A6
:1036600029F92B68029001A92068039320F004FC3B
:1036700005B030BDCC0A00204C210020482100209C
:10368000C00A002028E30300014B186820F008BCA2
:10369000CC0A002038B505F00DF90446064D2B681C
:1036A000D3F8B00205F0FAF8286820F00CFC2046A8
:1036B000BDE8384005F0F2B8CC0A002010B5234C24
:1036C00001F0A2FD01F0C2FF236F23F0070343F0D6
:1036D000030323671FF05CFE1D4B00209B6A9B07C2
:1036E0005EBF01221B4B9A62D4F8203123F0030302
:1036F00043F00203C4F82031D4F8243123F0070347
:1037000043F00203C4F82431D4F8403123F003031A
:1037100043F00203C4F84031D4F8603123F00303CE
:1037200043F00203C4F86031D4F8403223F00303BD
:1037300043F00203C4F84032D4F8003223F0070308
:1037400043F00203C4F8003210BD00BF00800050F7
:1037500000C0005000E0005008B502F045FD01280F
:103760000ED1144B04205A6E4FF480231249520399
:1037700058BF124A4B6601F51041086258BF5366A4
:1037800005F06EF81FF0D0FB04F0F8FF05F052F8DA
:1037900005F016F820F005FFFFF790FF04F0FEFF9C
:1037A0001FF0B9FB00F08EFC01F014F9BDE80840F1
:1037B00005F0BCBC008000500090005000A00050FC
:1037C00008B53A20012101F043FCBDE8084001485A
:1037D00000F094BDD00A002030B5224D95B00DAC5C
:1037E0000FCD0FC495E80700032384E807008DF888
:1037F0004D3029231C4A1D49CDE902231C4B1024BE
:10380000CDE904134FF480732246002109A80693E2
:103810002AF0B9F94FF4A020164B07A9CDE9070308
:103820000F238DF82430144B0DAA0A9320230B93F9
:1038300001238DF83130114B1148009302AB8DF804
:10384000254005F057FA04469DF832304FF4E13038
:10385000002B0CBF032100211FF09AFB204615B05E
:1038600030BD00BF40E30300000006500005000625
:103870000008000724000650D92D002084150020E0
:10388000E0150020831E012B10B512D8012910D895
:10389000114B04221B6905210020C3F3401302F0E1
:1038A00027F90E4B1B681868A8B1BDE81040436AA1
:1038B00018478B1E012B0CD801280CD8BDE81040EE
:1038C0000022054B05211B691046C3F3401302F08B
:1038D0000FB90129E5D910BD00C00350F00A00203E
:1038E00008B50449044805F0E5FCBDE80840FFF7C9
:1038F00073BF00BFE80A0020D8150020014821F05E
:1039000003B800BFE0150020014B1A6A1868104781
:10391000E015002001481FF08DBB00BF5CE30300F1
:1039200030B50368524A23F47F4323F007039342E0
:10393000044685B063D002F10172934265D04D4ACE
:10394000934260D10122022500211E200DF10D03BA
:103950008DF80D50ADF80E200FF0B0F9044610B3FD
:10396000454D4649286820F063FE4549286820F007
:103970005FFE1FF0CCFA1FF0CBFA424B424A009395
:1039800042499E23286820F053FE41492346414A7C
:10399000286820F04DFE204600F096F93E49286840
:1039A00020F046FEFEE72A4601460DF10E032320D5
:1039B0000FF084F9054630B32F4C3049206820F0D1
:1039C00037FE2F49206820F033FE1FF0A0FA1FF0C9
:1039D0009FFA2C4B2C4A00932C49A423206820F0FA
:1039E00027FE2B492B462B4A206820F021FE284633
:1039F00000F06AF92849206820F01AFEFEE7817974
:103A00008088FFF795FB05B030BDB0F805301B2B63
:103A1000F9D1C379012B05D101890079C9B2FFF72A
:103A2000F3FBF0E7022B03D100791FF068FAEAE715
:103A3000114D1249286820F0FBFD1149286820F03B
:103A4000F7FD1FF064FA1FF063FA144B0E4A00935F
:103A50000E498523286820F0EBFD114A114928689A
:103A600020F0E6FDE2791049286820F0E1FDFEE74C
:103A7000A0000601A000010008160020DDDE030002
:103A800067DE030060E4030074E3030075DE0300F7
:103A900084DE030081DE030099DE030078E4030086
:103AA000F5E30300FBE3030013E403007FB5002408
:103AB0000368464A23F47F4323F0070393420546F5
:103AC0008DF808408DF809408DF80A408DF80B40BC
:103AD0008DF80C408DF80D406DD002F1827293424A
:103AE00071D1B0F80530282B6DD1FF2304A91A46F7
:103AF00011E903001FF004FA012814BF41F2FC147D
:103B0000334B4FF0280108BF187004F0FC022879ED
:103B10000FF0EAF8064610B32E4C2F49206820F02B
:103B200087FD2E49206820F083FD1FF0F0F91FF07B
:103B3000EFF92B4B2B4A00932B494E23206820F0A2
:103B400077FD2A4933462A4A206820F071FD304625
:103B500000F0BAF82749206820F06AFDFEE71C4B08
:103B60001B78002B2FD028790FF096F8054650B31C
:103B7000184C1949206820F05BFD1849206820F096
:103B800057FD1FF0C4F91FF0C3F9154B154A0093F8
:103B900015495423206820F04BFD14492B46144A44
:103BA000206820F045FD284600F08EF81149206875
:103BB00020F03EFDFEE7064B1B7823B104B0BDE8C4
:103BC000704020F0D4BF04B070BD00BFA00006015B
:103BD000F92D002008160020DDDE030067DE03005B
:103BE0000AE503008AE4030075DE030084DE0300B7
:103BF00081DE030099DE030038B500F0B5FF0B4D00
:103C0000044618B100232B70102038BD012001F0AC
:103C100007F818B100F0DAFF2C70F5E7044B054AFD
:103C20001A60054B186001232B70EEE7FA2D002077
:103C3000F40A0020E0B1FFFF041600200B4B0246FF
:103C40001B788BB10A4B1B78834234BF00200120C4
:103C5000084B1B783BB1084B1B7843FA02F212F079
:103C6000010F08BF002070470120F1E7530D00202D
:103C7000540D0020FB2D0020550D0020012208B519
:103C8000074B1A700022074B1A700422064B1A7059
:103C90001F22064B1A7004F00DFE054B186008BD7C
:103CA000530D0020FB2D0020540D0020550D002049
:103CB00008160020024B0349186820F0B9BC00BF69
:103CC000081600202AE5030070B50C4C0C49064686
:103CD000206820F0ADFC04F0EDFD0546206804F0FE
:103CE000DDFD3046FFF7E6FF284604F0D7FD2068EB
:103CF0000449BDE8704020F09BBC00BF08160020BE
:103D00002CE503002EE50300002209490B684BB1A6
:103D1000834204D1836A4AB19362012070471A46F4
:103D20009B6AF4E70028F5D0184670470B60F4E76B
:103D30000C16002010B5044690B105F0ADFE2046EB
:103D4000FFF7E2FF58B194F82C0040B11FF03CFBA4
:103D5000044A1368013B13601FF03CFB002010BDB8
:103D60002220FCE7101600202DE9F04F85B0054613
:103D7000914698460E469DF8387009B9002F62D1D9
:103D80002846FFF7D7FF044600283CD185F82C00D1
:103D9000686305F06BFF864239D905F007FF40F2F2
:103DA000E7318C462146E6FB00C14FF47A7260464B
:103DB00000231DF0B1FF4FF0FF32002383468A46F7
:103DC0001DF0AAFF4FF0FF32E88600235846514607
:103DD0001DF0A2FF2B4611462846CDE900441B4AA0
:103DE00020F052FE044670B9194AC5E908981368D4
:103DF00085F82D702E6323B31A469B6A002BFBD1E6
:103E000095620023AB62204605B0BDE8F08F47B154
:103E10002B4631462846CDE900440C4A05F0EAFE1F
:103E2000E0E7304603A905F0C7FE04460028EAD1C2
:103E30002B462846CDE90077044A039920F000FE7E
:103E4000D0E71560DDE72124DDE700BF553E010026
:103E50000C16002091F82C3013B50C4683B98B8ECC
:103E6000CA8E93420ED243B9CDE9003320460B46A9
:103E7000104A4FF0FF3120F0C7FDA38E0133A38617
:103E800002B010BD52B191F82D307BB101230093E7
:103E9000D1E908232046096BFFF766FF0123064A94
:103EA00084F82C30136801331360E9E7084605F005
:103EB000F3FDF3E7553E01001016002070B5104DDC
:103EC0002B681BB100260F4B1C6804B970BD94F819
:103ED0002C3093B11FF078FA2B6884F82C60013BEA
:103EE0002B601FF077FA94F82D3013B92046FFF7B6
:103EF0000BFFD4E9083120469847A46AE5E700BFE4
:103F0000101600200C160020034B1B68002B0CBF62
:103F100001200420704700BF10160020024B1868D3
:103F2000B0FA80F0400970471016002007B508204D
:103F30001FF0F4F802238DF80030054B684601931A
:103F40001EF0F6FF082003B05DF804EB1FF0F2B896
:103F5000006A181008B500F02DF8124B12498B4278
:103F600012D30020114B12498B4218D3FEF734FDB7
:103F7000186850F82240586840F82240013298688A
:103F80008242F5D30C33EAE70022F8E71C6844F8D4
:103F9000220001325C68A242F8D30833E4E7002231
:103FA000F8E700BFF43504000036040000360400D2
:103FB000003604004FF400414FF0FF30124B134A1B
:103FC00010B59A60D3F8882042F47002C3F88820B4
:103FD0000F4A916601F1884101F5005210664FF6D3
:103FE000DF7050660220C3F8D000BFF34F8FBFF3DD
:103FF0006F8F08244FF440330648C0F88041D360E7
:1040000004600B6110BD00BF00ED00E00020010066
:104010000090005000E100E0014B1868704700BFBD
:10402000FC0A0020084B1B6F03F00703022B04D08F
:10403000032B05D0012B05D0FEE7044B1868704711
:10404000034BFBE70348704700800050FC0A002048
:10405000000B0020002D310108B5FFF7E3FF054BF1
:104060001B6FC3F303330133B0FBF3F0024B186053
:1040700008BD00BF00800050F80A002000487047CB
:1040800000B4C404014B1868704700BF000B002047
:10409000054B1860054B1B6F03F00703032B01D181
:1040A000FFF7DABF704700BF000B00200080005010
:1040B00000487047002D3101014B1868704700BF60
:1040C000040B00200020836A10B5B3F5903F0ED298
:1040D0001968084A91420AD1074C227812F0FD0F64
:1040E00004D1DB69984708B90123237010BD4FF450
:1040F0008170FBE707B0CD5EFC2D00204FF0005330
:10410000074A1A60BFF34F8F0649074BCA6802F48B
:10411000E0621343CB60BFF34F8F00BFFDE700BFEA
:1041200002020FF000ED00E00400FA0570B5D0B116
:10413000C9B10E4E431E013913F8014F2046A25D4E
:1041400002F00302012A11F8012F08BF04F1200038
:10415000B55C05F00305012D08BF2032801A01D19E
:10416000002CE9D170BD0120FCE700BF1D28040030
:1041700005490A681318054883428CBF4FF0FF3287
:104180000B601046704700BF080B00200080002025
:1041900037B50468012105463A2000F059FF002395
:1041A00001226179207901F0A3FC142230232179C6
:1041B00013FB012303F1A04303F570331B686279FD
:1041C000D340DB4303F001032370A379022B0ED10C
:1041D00000F086FB2A460749607900F0ABFB01231B
:1041E000024661792079CDE9003301F029FC0020F5
:1041F00003B030BD4130030008B501213A2000F082
:1042000027FF032101230422002001F071FC00207C
:104210001FF0FBF80122214B4FF46070C3F84424D7
:104220001EF0EEFF1E4B00F5D520D3F8F02000F273
:10423000FC4042F00102C3F8F020D3F8FC2042F029
:104240008072C3F8FC20174AA3F55D431A60164B31
:104250000222B0FBF3F0154B01381861C3F8F020CF
:104260004FF48072C3F804234FF06043104A0020DB
:10427000C3F8B02F0F4AC3F8802ED3F8002E42F4B3
:104280008072C3F8002EFF2283F82020D3F8002E7E
:1042900022F48072C3F8002E08BD00BF00D0035086
:1042A00000ED00E0FF030040F8590D00000004E0BD
:1042B00055CEACC5090001004FF06043D3F8802E05
:1042C00030B5D20715D501240B4D8440D5F8FC201C
:1042D00042F08072C5F8FC20D3F8002E2243C3F8C8
:1042E000002E53F82020002AF0D003F820100020E0
:1042F00030BD1120FCE700BF00ED00E02DE9FF41DB
:104300000368374A0446934204D0364A934251D157
:104310002F2000E02E20012100F09AFE01230A2226
:104320006179207901F0E4FB01230A22E179A07987
:1043300001F0DEFB0A2601272B4D4FF0300842F238
:1043400010032279617908FB025207FA01F1D1507A
:10435000642005F027FE41F210012379627908FB01
:10436000035307FA02F264205A5005F01BFE013E87
:10437000E3D120681A4B98421FD10323C5F890342B
:104380006279237943EA0243C5F89434E279A37948
:1043900043EA0243C5F8983440F20113ADF8003007
:1043A000E36869460293A3680193237C8DF80C307F
:1043B00001F01EFC04B0BDE8F0810A4B9842EBD13D
:1043C0000323C5F8A0346279237943EA0243C5F890
:1043D000A434E279A37943EA0243C5F8A834DBE7C1
:1043E0000000015A0080065000C0035038B5054651
:1043F00001F03CFD044C012801D1013C00D138BD45
:10440000284601F017FCF6E7E19304002DE9F04F90
:104410009A46564B85B01B7806460F461546DDF882
:104420003C909DF844B0DDF85080002B00F08D806A
:10443000072A00F28C800E9B002B00F08880B9F1D7
:10444000000F00F08480129BB3F5006F7FDC012821
:1044500002D1109B002B7AD0454B03EB05131B7B3D
:10446000002B76D0434C10220021684629F08BFBAC
:1044700004EB45141022002F59D13946204629F06B
:1044800082FB43F210036380BBF1000F03D1E3789A
:1044900043F00303E370374A0E9B02EB451CCCE963
:1044A0000193129B6901013BC3F30A009DF84C3054
:1044B000012E03F003034FEA836343EA001E5358BF
:1044C0002D48CDF800A000EA03004EEA0003535047
:1044D00041D113230CF1100ECCF80C309CE80F00E6
:1044E0008EE80F006FF00301DCF81C20109B61F3D5
:1044F0009F02012FCCF81C20CCF8143003D1CCF84B
:104500001890CCF804300027194A290102EB051352
:1045100042F80180159A28465A60694622469F60F3
:104520005E7301F045FD384605B0BDE8F08F00210F
:10453000204629F028FB4FF444736380BBF1000F41
:10454000A9D1E37843F03003A4E70C48ECE70C482A
:10455000EAE70C48E8E7B8F1000FD4D19CF8023044
:1045600068F304138CF80230CDE700BFFD2D002066
:1045700014160020941600200F80FFF3028000F034
:10458000018000F0078000F038B5124B05461B781B
:10459000DBB1E0B11EF018FF0F4A00231146147B77
:1045A00054B92B6001251A0101EB03131D738C50C4
:1045B0001EF010FF204638BD0133082B02F1100217
:1045C000EDD11EF007FF0548F5E70548F3E705487C
:1045D000F1E700BFFD2D002014160020048000F03C
:1045E000028000F0018000F013B51EF0EDFE002304
:1045F0000B4A147B7CB90133082B02F11002F8D16D
:10460000019001F077FC074B01981C701EF0E2FE50
:10461000204602B010BD1EF0DDFE0348F9E700BFE2
:1046200014160020FD2D0020058000F00D4B10B564
:104630001B78044693B1072812D81EF0C5FE0A4B1A
:1046400003EB04131A7B2AB100241C731EF0C2FE74
:10465000204610BD1EF0BEFE0448FAE70448F8E705
:104660000448F6E7FD2D002014160020068000F017
:10467000028000F0018000F0154B13B5186800238C
:1046800001908DF804301EF09FFE124B1C7824B16F
:104690001EF0A0FE104802B010BD01221A701EF0DC
:1046A00099FE0E4B01A81C731C7783F82C4083F8ED
:1046B0003C4083F84C4083F85C4083F86C4083F8BE
:1046C0007C4008238DF8073001F040FC2046E2E7EB
:1046D00084E50300FD2D0020038000F01416002067
:1046E0000A4A08B512785AB107280BD8084A02EBD3
:1046F00000131B7B43B1002101F01AFC002008BD10
:104700000448FCE70448FAE70448F8E7FD2D0020D8
:1047100014160020028000F0018000F0078000F0F5
:104720000A4A08B512785AB107280BD8084A02EB92
:1047300000131B7B43B1012101F0FAFB002008BDEF
:104740000448FCE70448FAE70448F8E7FD2D002098
:1047500014160020028000F0018000F0078000F0B5
:104760000A4A08B5127852B107280AD8084A02EB5B
:1047700000131B7B3BB101F069FC002008BD05481C
:10478000FCE70548FAE70548F8E700BFFD2D0020E3
:1047900014160020028000F0018000F0078000F075
:1047A0000D4B1B7893B1072812D889B10B4B03EB43
:1047B00000131B7B73B10A4B1A6D012303FA00F03F
:1047C00010401ABF00200B700870704705487047F2
:1047D0000548704705487047FD2D0020141600203D
:1047E00000000450028000F0018000F0078000F01B
:1047F0000B4A10B512780C4662B107280CD859B193
:10480000084A02EB00131B7B43B101F031FC20701E
:10481000002010BD0448FCE70448FAE70448F8E724
:10482000FD2D002014160020028000F0018000F011
:10483000078000F02DE9F843174B1F6D5B6D1F409B
:1048400000D5FEE701260025144CDFF85480DFF880
:104850005490374217D02368C8F850609BB1A168C4
:10486000284601316268A1609847637B012B0AD119
:1048700048B909EB45131A7B60F341021A731A7F9A
:1048800060F341021A770135082D4FEA460604F11C
:104890001004DED1BDE8F883000004501416002097
:1048A000002004509416002070B5044601250B4EDC
:1048B00004B970BD94FAA4F0B0FA80F005FA00F3E0
:1048C00006EB001224EA03045368002BF0D0117B9E
:1048D00011B191689847EBE79847E9E794170020F2
:1048E00008B5192000F0DEFE28B14FF00072074B2A
:1048F000C3F880211A601A2000F0D4FE28B14FF0CE
:104900008062024BC3F880211A6008BD00E100E01C
:1049100038B505460C461EF057FD0022044B03EB4C
:1049200005135C601A73BDE838401EF053BD00BF2C
:1049300094170020F8B505460F4616461EF044FDB4
:10494000104B05F0FC02D3F824140023EC1804F0FB
:104950000304144321FA04FC1CF0010F07D00133B7
:10496000042BF3D1FF241EF035FD2046F8BDFF2CAB
:10497000F9D00122044B03EB0413C3E901761A7347
:10498000F1E700BF00C0035094170020074BD3F895
:104990002404D3F8202403F50053104000F05530D0
:1049A00020F05020C3F82004FFF77EBF00C0035062
:1049B000074BD3F82404D3F8202403F50053104008
:1049C00000F0AA3020F0A020C3F82004FFF76CBF4D
:1049D00000C00350024B1968024B186815F0DABB8F
:1049E000100B00200C0B002037B5920004460D463A
:1049F000019229F0C1F9431C0BD060B92946204629
:104A0000019A29F089F80028044808BF002003B063
:104A100030BD0348FBE70348F9E700BF10E000F0B2
:104A200021E000F024E000F010B5044629F09CF9E4
:104A3000431C10D088B901F0DFFB234620F00300AF
:104A40002044984201D1002010BD53F8042B0132BC
:104A5000F7D00348F8E70348F6E70348F4E700BF58
:104A60000EE000F021E000F024E000F008B51EF0B8
:104A7000A4FC014B186008BDD41F0020014B18682E
:104A80001EF09FBCD41F002000210846F0B52F4C1B
:104A90002F4A2368156845B11D68002D4BD09D88AD
:104AA0009688AE4284BF134601210130052802F1E9
:104AB0000802EFD101B1236000210D462548264AA6
:104AC0000368166846B11E68002E37D09E88978806
:104AD000B7423CBF134601210135052D02F1080202
:104AE000EFD101B1036023681A6852B31B499C8857
:104AF0008A6F1B4B22F0FF7203EA044322F48032D8
:104B000013438B674FF050234FF000429A660368BF
:104B10001A68C2B111499B888A6FC3F3080322F453
:104B2000FF7222F0010213438B674FF050234FF0C6
:104B300080429A66F0BD13460121B6E71346012173
:104B4000CAE7084BE0E7074BF1E700BF88200020E9
:104B5000982000208C200020C02000200040005021
:104B60000000FF0100600050012208B50F4B00213A
:104B70001A700F48282229F006F8282200210D4833
:104B800029F001F80C4B0D4A13600D4A13604FF0E9
:104B900040420C4B5A669A6640220B4BC3F8802168
:104BA0001A60FFF771FF002008BD00BFFF2D002035
:104BB00098200020C0200020902000208820002085
:104BC0008C2000200060005000E100E010B50024BF
:104BD00040220E4B1C700E4BC3F88020BFF34F8F4A
:104BE000BFF36F8FC3F880214FF04042094B21463D
:104BF0005A6609489A66282228F0C5FF28222146CD
:104C0000064828F0C0FF204610BD00BFFF2D002041
:104C100000E100E00060005098200020C02000204B
:104C200008B5084B1A78824203D0187018B1FFF704
:104C30002BFF002008BD4FF04042034B5A669A6696
:104C4000F7E700BFFE2D00200060005008B500F01F
:104C5000E5FEDFED117AB4EEE70AF1EE10FA18D4B2
:104C6000DFED0E7AB4EE670AF1EE10FA37FE800A35
:104C700010EE100A1CF016FD0022094B1CF0B4FBCC
:104C80000022084B1CF0B0FB1CF0FEFF803840B245
:104C900008BDB0EE670AEBE7000000C30000FE426B
:104CA0000000E03F00006040154A38B5936E526E38
:104CB000134013F0804212D0124B1B681D6835B1AF
:104CC00000241C605C60FFF7C1FF2146A8474FF03D
:104CD00080420D4B5A66BDE83840FFF7D5BE002B29
:104CE000F9DA0A4B1B681C682CB11A605A60FFF78E
:104CF000ADFF0121A0474FF00042034BEAE700BFA0
:104D0000004000508C2000200060005088200020CF
:104D1000044BD3F88420D206FBD4D3F88400C0F32C
:104D2000811070470040005038B5104B0546D3F84D
:104D300020310C4603F00303022B0BD0032B0DD0C4
:104D4000012B0FD1FFF768F9052305B1286004B1E5
:104D5000236038BDFFF796F90323F6E7FFF7A8F9BC
:104D60000223F2E701230020EFE700BF008000509C
:104D700073B50D4600210E4B0191D3F880410646D4
:104D800004F00304012C09D0022C0CD00C460EB107
:104D9000019B336005B12C6002B070BD01A8FFF724
:104DA000C3FF0F24F3E7FFF783F90190EFE700BF9C
:104DB0000080005038B5184B0546D3F824010C4646
:104DC00000F00700062805D8DFE800F0230B131BCE
:104DD0001F0F17000023184605B1286004B1236097
:104DE00038BDFFF719F90523F6E7FFF715F9062394
:104DF000F2E7FFF747F90323EEE7FFF743F9042350
:104E0000EAE7FFF755F90223E6E71EF0D1F807239A
:104E1000E2E70123E0E700BF0080005038B5104B07
:104E20000546D3F840310C4603F00303022B0BD0A8
:104E3000032B0DD0012B0FD11EF0BCF8092305B1B7
:104E4000286004B1236038BDFFF736F90823F6E780
:104E50001EF0B3F80B23F2E701230020EFE700BFB9
:104E60000080005038B5144B0546D3F800020C46BC
:104E700000F00700042804D8DFE800F01B0A0E1237
:104E800016000023184605B1286004B1236038BD20
:104E90001EF090F80923F6E7FFF70EF90823F2E772
:104EA0001EF08BF80B23EEE7FFF7D6F80E23800AEF
:104EB000E9E70123E7E700BF0080005038B5104B59
:104EC0000546D3F840320C4603F00303022B0BD007
:104ED000032B0DD0012B0FD11EF06CF8092305B167
:104EE000286004B1236038BDFFF7E6F80823F6E731
:104EF0001EF063F80B23F2E700231846EFE700BF2C
:104F00000080005038B5104B0546D3F860310C4690
:104F100003F00303022B0BD0032B0DD0012B0FD179
:104F20001EF048F8092305B1286004B1236038BD9C
:104F3000FFF7C2F80823F6E71EF03FF80B23F2E76D
:104F400001230020EFE700BF0080005010B40D4C9B
:104F50000B46D4F8204204F00304012C0AD0022CA2
:104F60000CD008B1002101600BB100221A605DF87D
:104F7000044B70475DF8044BFFF7D6BE5DF8044B59
:104F8000FFF74CBF0080005038B50C4605461EF0B8
:104F900014FA064B9A6A82EA040101EA05045440B5
:104FA0009C62BDE838401EF00CBA00BF00C0005043
:104FB000B0F5207F1FD009D8B0F5007F15D003D8F9
:104FC00068B1B0F5C07F0AD000200CE0B0F5607F7A
:104FD000FAD10B4BD3F88000C0F3011003E0084B6B
:104FE000186FC0F3033001307047054BD3F89000C1
:104FF000C0F30460F7E7024B186FC0F38020F2E7BC
:10500000008000504FF400320E4B014610B50020D6
:105010009A66FFF7CDFF41F6713248430A490B4BC0
:1050200088428CBF4FF480100020DC69DA639A68F4
:1050300022F4401202439A60E20344BF0022DA6382
:1050400010BD00BF00900050005A620200000350E3
:10505000420910B510D0012A10D00B4B0B4C022A7C
:1050600018BF234600F01F0051B103F58053012201
:1050700002FA00F0186010BD1346F3E7044BF1E7A5
:1050800003F50053F3E700BF6880005060820050D2
:105090006480005008B580201EF0B2F8034B98429F
:1050A0009EBF4FF48032024B1A6708BD005A62025D
:1050B00000A000501FB50023B0F5807F019377D08A
:1050C00028D8382800F094800BD82438092810D824
:1050D00009280ED8DFE800F0676767670D0D620DDD
:1050E000377D52285FD008D83D283BD03E2800F0BD
:1050F0008480019805B05DF804FB8028F9D1414B0C
:105100001B6F03F00703013B032BF2D8DFE803F02A
:1051100044413F6CB0F5D06F5BD019D8B0F5A06FAB
:1051200066D00AD8B0F5806F3DD0B0F5906FE0D171
:10513000002001A9FFF73EFEDBE7B0F5B06F2DD0F0
:10514000B0F5C06FD5D1002001A9FFF767FED0E709
:10515000B0F5006FECD00AD8B0F5E06F4DD0B0F5E7
:10516000F06FC6D1002001A9FFF7CCFEC1E7B0F572
:10517000086FBED1234BD3F8003103F00303022B99
:105180002CD0032B2ED0012B30D1FEF77BFF032335
:1051900000E005230193ACE70223FBE7002001A90F
:1051A000FFF7E6FDA5E7002001A9FFF7BDFDA0E799
:1051B00002934FF0E0231B695B0705D5FEF74CFF18
:1051C0000C230393039BE5E703A902A8FFF726FE40
:1051D000F8E7002001A9FFF745FE8AE7FEF76CFF1C
:1051E0000823D7E71DF0E4FE0723D3E70123D1E727
:1051F000002001A9FFF7AAFE7BE7002001A9FFF725
:105200005DFE76E7008000504FF40022034B5A66A3
:10521000012203F580439A62704700BF009000505E
:1052200008B5FFF747FF082811D00938012811D821
:105230004FF40012094B4FF6FF705A6603F5D8334E
:105240005B6A13F0010F18BF4FF4FA7008BD044BEE
:105250001888FBE74FF6FF70F8E700BF009000509A
:10526000400D002070B504468020FFF723FF03287F
:1052700000F082804FF40022444B02215A6645F62A
:105280000E03434AC2F88030424B9962012103F574
:1052900080539962936DD903FCD4D4E900131B05A4
:1052A00043EA0163E17B94F822500B43217B94F89D
:1052B000236043EA0143617B43EA0133A17B43EA74
:1052C000811313619169D4E904031B0643EA8063E7
:1052D00001F000410B43A17EE07E0B43217E43EAB7
:1052E0000143617E43EA01239361E369126A002B63
:1052F0000CBF0021082122F00D0242EA030242EA1B
:105300008002234B42EA01021A6294F820204FEAFD
:10531000421232D1986A94F8211020F0330042EA08
:105320000112024342F001029A621B4A996D32EA6D
:105330000101FBD1022217498A621A659A6D520057
:10534000FCD41869A26820F4700040EA02504FF0C3
:10535000004218610F4B9A611DB9022203F5805378
:105360009A6216B901220D4B9A6294F824301BB14F
:10537000074B0B4AC3F8802070BD996A21F03301B6
:1053800031430A4342EA4502EEE700BF0090005075
:1053900000C0005000D000500300014000E0005069
:1053A000F1A7FFFF1E4B13B5996A9A6D12F4803F67
:1053B00018BF01241B4A18BF9462022494629B6D9B
:1053C000DB0303D5164A936D9C07FCD50222154BCF
:1053D000134C1A65A36D5B00FCD4134BA26993F9BF
:1053E000003022F47F020344000222F47F4280B2A4
:1053F00083F30803104340EA0340A06102200191B7
:10540000FFF7C2FDA36D019913F4803F05D0012081
:1054100002B0BDE81040FFF7B7BD02B010BD00BF3D
:1054200000C0005000D00050002E0020014B93F926
:1054300000007047002E002001221248124B816AA2
:105440009A62826D02F00302032AFAD102229A6262
:105450001A650C4B9A6D5000FCD401209A6D0A4AD3
:1054600010659A6D9207FCD4064B9A6D9007FCD597
:105470000220054A10659A6D9207FCD50320FFF7BC
:1054800083BD00BF00C0005000D00050F0B5D0E98F
:1054900001434FF480061A4A4178057856664FF466
:1054A000D156022702F5B8325662164E4F29776060
:1054B0004FF0010728BF4F2106F580567760166927
:1054C000F603FCD441EA052151611B01417B43EA0B
:1054D00004230B43017B43EA41039360C37B817B3D
:1054E0001B0143EA4113417C0B43017C43EA410326
:1054F0005360837C13B16FF4D1535362F0BD00BF8E
:105500000090005000100250014B1880704700BFFF
:10551000400D0020014B1880704700BF3E0D002059
:105520004FF4001208B5184B5A660223174A53600D
:10553000936813F48033FBD1012822D1FEF7A2FD3A
:10554000134B984215D003F5122303F5F8639842E4
:1055500013D0104B00EB8002400AB3FBF0F0520A6C
:105560000A4BDA62012218635A620022074B5A6022
:1055700008BD45F67A10084AF2E745F61A00074AD0
:10558000EEE75362F1E700BF009000500040025088
:1055900000F0490264666666D8B80500BBCF050016
:1055A000B0F5207F10B50C4642D008D8B0F5007F8A
:1055B00033D003D888B1B0F5C07F0ED010BDB0F5A0
:1055C000607FFBD11F4B013CD3F8801021F03001EC
:1055D00041EA0414C3F88040F0E71DF009FE1DF015
:1055E000D2FE4FF48031184A164B1167196F013CF7
:1055F00021F4704141EA04341C67FEF72DFD044696
:10560000FFF786FBC0F1020120461DF0B6FE00F058
:105610002DF8BDE81040FFF73DBD0A4B013CD3F823
:10562000901021F0F85141EA0464C3F89040C5E7B6
:10563000044B013C196F21F4806141EA84241C670A
:10564000BCE700BF008000500090005008B5012169
:10565000022000F0E5F81DF0CBFD1DF094FE4FF4A4
:105660008032014B1A6708BD0090005008B54FF416
:10567000C0701DF0C5FDBDE80840044988428CBFDC
:10568000022101214FF42070FFF78ABF80F0FA0257
:10569000034B5868C0F30800003818BF012070475A
:1056A00000ED00E0054B420953F8223000F01F00E6
:1056B00023FA00F0C04300F00100704700E100E071
:1056C000194B10B51B6873B3184A5268012A2AD0C7
:1056D000174A8020C2F80031FFF7ECFC05281FD1E3
:1056E0004FF4C070FFF764FC0128044604D1022186
:1056F0004FF4C070FFF754FF07220E4B1A610122CE
:10570000A3F580535A60094A1369DB07FCD5012CC5
:1057100009D12146BDE810404FF4C070FFF740BFEB
:105720000122054B5A6010BDE820002000C0015046
:105730000080005000E0015000D0015000224FF4E2
:105740000031074B1A60074A516602F598325268D9
:10575000012A02BF044AD2F800211A60704700BF34
:10576000E82000200090005000800050044A41785A
:10577000536F23F4407343EA01235367704700BF1C
:105780000040005010B5044608B1FFF7D7FF0E4A9D
:10579000136943F00403136103F08CFF1DF01DFE39
:1057A0001DF00BFE28F0F0FA1DF00BFE1DF016FEAA
:1057B00003F094FF1CB1BDE81040FFF781BFBDE8C6
:1057C0001040FEF749BC00BF00ED00E010B50446F4
:1057D00008B1FFF7B3FF0C4A136943F004031361E8
:1057E00003F068FF1DF0E9FD28F0CEFA1DF0E9FD99
:1057F00003F074FF1CB1BDE81040FFF761BFBDE8C6
:105800001040FEF729BC00BF00ED00E0034A01791B
:10581000D36E23F030030B43D36670470040005033
:10582000F8B504461C4BD3F88420D106FBD4D3F83A
:105830008430C3F381139C422CD0FEF7F3FB012C80
:10584000064602D121461DF098FD1DF0B6FD4FF031
:105850000072124B07465A6620461DF0C4FD4FF4F5
:1058600080630D4D621E93402B676B6E9A0103D4CB
:10587000D5F884309B060AD538461DF0A2FD022CCF
:1058800008D13046BDE8F84000211DF076BDD5F8BE
:105890008430EAE7F8BD00BF0040005000600050CF
:1058A00007B518B90191FEF7BDFB0199064B1B78AE
:1058B00043B1064B984205D8012003B05DF804EBD4
:1058C000FFF7AEBF0220F8E7012E0020005A620267
:1058D0000278034B012100201A70FFF7E1BF00BFDF
:1058E000012E00204FF00042012138B5274B5A66A7
:1058F00003F50C2359604AF6CD33254A556C1364E1
:105900000D4048BB94680C4009D0224B224C996052
:10591000D36ADB0710D4A0420CD14FF0FF34012230
:105920001C4B5A6015B11A4B1C4A1A6427F008FC2C
:10593000204638BD0130EBE7A0424FF0FF3418BFDE
:105940000024ECE70131D36A13F0080307D0814249
:10595000F8D16FF00104E5E700210F48F3E7814239
:10596000F7D020210B4A51620121A2F580529160AB
:105970000749094A486A800603D49342E9D00133B3
:10598000F8E79342E5D00024CCE700BF0090005038
:10599000004009500060095040420F003254FFFFA0
:1059A0004FF0004238B5194B194C5A66012203F5E5
:1059B0000C235A604AF6CD33656C23644378154056
:1059C00093401343134AD363A368827823F074038C
:1059D00043EA0213C278002A14BF042200221343B0
:1059E000A3600279837943EA022323614279C37970
:1059F00043EA022363610078FFF774FF0DB1064BA1
:105A0000236427F09DFB012038BD00BF00900050AB
:105A100000400950004000503254FFFF064B9FEDFC
:105A2000070AD3F88830C3F30A0307EE903AFAEE78
:105A3000CF7A37EEC00A7047004000503393884356
:105A4000072AF7B501F0030614461F464FF003017D
:105A50002CD89500A94000FA05F21C4801911DF0D0
:105A6000C3FC01991A4806FA05F21DF0BDFC194B5A
:105A700019499DF82000002F08BF1946012303FA99
:105A800004F40C60154B1649002808BF0B461C6037
:105A9000144B9DF82400C3F820441031A3F6DC33E6
:105AA000002808BF0B461C6003B0F0BDA2F108053A
:105AB000AD00A94000FA05F20B4801911DF094FCDD
:105AC00001990A4806FA05F2CFE700BF00C4035067
:105AD00008C4035010E4035010D4035014D40350EE
:105AE00014E4035000E0035004C403500CC40350FA
:105AF000F8B504460D461F4616464AB101238B40B1
:105B00003021194A01FB0022FFB141F2100153502C
:105B100004EB4403072D4FF00F014FEA031317D88E
:105B2000A80006FA00F28140104818441DF05CFC01
:105B300056B9012130230C4801FA05F503FB040096
:105B400077B141F21003C550F8BD42F21001DEE713
:105B5000A5F10800800006FA00F281400448E4E75D
:105B600042F21003EFE700BF00C0035004C003502F
:105B70000CC00350F8B505460E4614465AB3826869
:105B800003F0030722F4407282601DF016FCAA683D
:105B900082EA072303F440735340AB601DF011FC0D
:105BA00036B9104B9D4217D12E201DF029FB064619
:105BB000AB680D4BD85D60430DD06FEAC40404445C
:105BC000A319B3FBF0F3AA68013B920702D5002B9F
:105BD00008BF0123AB61F8BD044B9D42E8D12F20E3
:105BE000E3E700BF0000015AACE503000080065067
:105BF00038B500230E4A036400F50053DA634A788F
:105C000004460D4600F108037AB903F580530222D9
:105C10001A602046D5E901122B7BFFF7ABFF204627
:105C20002978BDE838401DF0F1BB03F50053EEE7DD
:105C3000FFFF1F00884B2DE9F043984222D0874B8D
:105C4000984240F00581864B402505264FF000081C
:105C50004FF0030C996800F50054C26B12F4C06F4A
:105C600016D0970510D5FD225A7009221A7000220D
:105C7000026493F90110012900D15A7093F90100CF
:105C8000BDE8F083774BDFE75605EED5FE22EBE764
:105C90001F78082F00F2D880DFE817F009001F00F6
:105CA00041004C006900740096009E00CD004C88B5
:105CB0000A88E5060AD5120A02F0060242F0F0024E
:105CC000012119704263C1600120D9E702F0FE0290
:105CD000A10748BF42F00102F2E7170607D580216D
:105CE00000F50052D1634FF608721A8062E0520646
:105CF000EAD54A88E563D70604D502221A700B78E4
:105D00004363E1E7920765D507221A701B7901EB1F
:105D1000C3010B89012BD7D10823C360D4E7170631
:105D2000DDD45206D0D54A88E563970752D583F86B
:105D300000C092E74C880A88E50643BF120A02F0C9
:105D4000060242F0F00202F0FE02640709D51C7957
:105D500042F0010201EBC4010989012904BF0821B5
:105D6000C160042119700123C3604263ACE71706C8
:105D7000B5D45706A8D54A88E56352072AD5072225
:105D80001A70A1E71A795F8801EBC20EBEF808907D
:105D9000B94511D80132D2B21A714F88A3F80280E6
:105DA00017F0040FC3D1FF0702D4012A7FF655AFC5
:105DB00008221A700223B0E7DEF80420791C59800B
:105DC000D25D42630622DBE7170688D457067FF5CB
:105DD0007BAFE5631E7040E794067FF575AF456ABB
:105DE000214C46691A793440B4F5003F04BF466A35
:105DF0004FF4005601EBC20100F500540A8908BFB8
:105E0000E6632026E6635C88A24281BF4968661C7F
:105E10005E800D5559888A42CAD90424012AC4607B
:105E200004D9013A914201D10822C2601A78092AA4
:105E30003FF41DAF48E7D2057FF546AF4FF48071C0
:105E400000F50052D16310E74FF609321A800EE7D1
:105E50006FF0030014E700BF0000015A00800650F5
:105E6000F8200020EC200020200002001C4B10B481
:105E7000984207D01B4B98422ED06FF003005DF87C
:105E8000044B7047184B0269D20744BF2022C260FE
:105E90004A88940702D50C89002CEED0520702D50F
:105EA0000A8A002AE9D04FF480721A6000229960B1
:105EB0001A71C023C3604369DB050FD4202200F5AB
:105EC0000053DA63094A5DF8044BDA63036C43F468
:105ED000FC630364FFF7AEBE054BD4E7436AEAE711
:105EE0000000015A00800650EC200020FFFF1F0038
:105EF000F82000204FF400120B4B10B5C3F880209F
:105F0000BFF34F8FBFF36F8F0024FF22074B214653
:105F10005C6520209A625C60FFF79AF82146BDE834
:105F200010402120FFF794B800E100E00000045089
:105F3000044A054B002918BF1346012202FA00F05B
:105F400018607047402004504010045010B50121E3
:105F500004462020FFF77CF801212120FFF778F884
:105F60000122114B5A60227812069A606178A27859
:105F700042EA01429A61FF229A6200229A631A64FD
:105F80004FF000425A654FF0FF324FF4001103F515
:105F900000531A65054AC2F88011E3781B01DBB291
:105FA00082F81533116010BD0000045000E100E0DC
:105FB0002DE9F04101250C46C3B2DFF888E0D1F8A5
:105FC00000809D408F7ACB7A94F80DC0097BCEF883
:105FD00050500EF5005E4EF820804FF0300E184EF7
:105FE0001B050EFB006043EA074343EA415322F0DE
:105FF0000302C0F860C0C36502671DF0E5F9736D68
:106000002B437365237A13B1336C2B433364637A68
:1060100013B1B36B2B43B3632279A37943EA0243F1
:10602000084A93616179E37943EA014306498B6148
:10603000034B55639D64BDE8F0411DF0CBB900BF33
:1060400000000450002004500010045010B501243A
:10605000C0B284401DF0B8F9044B5A6D22EA040224
:106060005A659C62BDE810401DF0B4B900000450B0
:1060700010B50124C0B284401DF0A6F9074BDA6ABE
:10608000224209D15B6B34EA03030CBF01240024D4
:106090001DF0A0F9204610BD0024F9E700000450CF
:1060A0004FF40032054B9A6641F6713203F51C330A
:1060B000DA63012203F50053DA6070470090005064
:1060C00041F671320121064BDA6303F50052D160CB
:1060D0000022DA634FF40032A3F518339A66704752
:1060E00000000350CB784A7810B55B010C7843EA86
:1060F00082030A79234343EA02130C22424302F14A
:10610000B0421363012C02BF8A78024B43F820206F
:1061100010BD00BFE880035008B54FF0B0435A6887
:1061200002B960B15B680BB11DF07AF94FF0B04174
:1061300030B10120074B58601DF072F9C86008BDEE
:106140001DF06EF90223CB601DF06AF90122024BAB
:106150005A60F4E700100058002000584FF0B04398
:106160005B6870B50BB11DF05BF90121104B4578F0
:10617000596083780679002BC37814BF0224002469
:10618000002B14BF042200224379DB0043EA0613EC
:106190002B43234313434FF0B0429360054B5960A8
:1061A0000378002B14BF0B460223D36070BD00BFE1
:1061B00000200058001000584FF48032064B5A66F9
:1061C00003F5E6235B69C3F38512827003F03F0297
:1061D0001B0B42700370704700900050014B986C8D
:1061E000D96C70470080E00F024B1868C0F307407D
:1061F000704700BF0080E00F0120034B9B680A330B
:1062000003F01F03984070470080E00F70B505460B
:1062100016461C4621B94FF420701CF0F1FF0146D0
:10622000402C1BD003D8DCB1202C1BD070BD602CBF
:10623000FCD1042303FB06F2560806EB4113B3FB23
:10624000F2F3094A203B02EAC303AA6822F0600283
:10625000AA60AA681443AC60EB61E7E70623E9E7AC
:106260001023E7E70823E5E7F8FF7F00012200F5A8
:10627000805310B55A6040F6AA6341F205024361AB
:1062800000230E498360C365C26000F500520361BC
:10629000C361C36491640A498365884202D0094C92
:1062A000A04207D18842036502D0064B984201D133
:1062B000002343650123536010BD00BFFFFF0100B1
:1062C00000C005500000065070B50D46FFF7CEFF28
:1062D000012300F580567360AB7C04461BB18368D4
:1062E00043F080438360EB7C5BB1354A2B7D944265
:1062F00045D1A2F51032C2F88C31E36D43F0800332
:10630000E3652A8A6B7B20461343EA891343E360E3
:106310002B7BD5E90112FFF779FF6B7D1BB1A368D9
:1063200043F48033A360AB7D1BB1A36843F4004307
:10633000A360EB7D2A7E1B07120502F4E00203F046
:10634000E0431343A365697E1D4A8B1E012B1D4B41
:106350001FD894421BD002F5804294420CBF012208
:106360004FF0FF3203EB4213022041F21C6203297B
:10637000985020D10423F3652B78636170BD124AD5
:10638000944204BFA2F52032C2F89C31B5E7002246
:10639000E8E794420DD00C4A94420CBF01224FF022
:1063A000FF3203EB4213022042F21C620129985093
:1063B000DFE70022F5E7042204F50053DA65DBE7A6
:1063C00000C0055000C003500000065038B5044618
:1063D000054D26F0DCFE0FCC0FC594E8030085E8E0
:1063E0000300002038BD00BF0421002047F6FF73E2
:1063F0009A42F0B566D0012966D8344DCF0015F821
:10640000313005EBC100012B847813D10025C3780E
:106410001B1B9D4202D3E018C0B2F0BD591B466859
:10642000A3EB510136F911609642D4BF0D4601F13C
:10643000FF33EEE740680028EFD0B0F90030934218
:1064400004DBB0F902309342B8BF134682883D4462
:10645000FF2A19BFC8214FF0280CB0F90610B0F977
:1064600008C0A1EB03020CBF0126002692FBFCF240
:106470006D78324412B2954201DD002A01DA6A1EBB
:1064800012B24FF47A7700EBC206F188B668013297
:1064900013FB016112B221EAE1715C319542B1FB5B
:1064A000F7F104DD00EBC206B6888E42EBD200EBBA
:1064B000C20232F8040C884228BF0846A04238BF06
:1064C0002046A9E7FF20A8E70020A6E70421002036
:1064D0000129F0B553D82B4800EBC10410F8311056
:1064E000636801290FD1E078A478904294BFC4EB8F
:1064F0000001C4EB0201001BCAB28242C8BF0022E5
:1065000033F91200F0BD002B39D0A178914202D3AB
:10651000B3F90200F6E7E178B3F900009142F1D94E
:1065200099886478A1F1FF06013C714203F10405EA
:10653000E4B2714103F10C071FFA82FCCEB2B442FF
:1065400016D805EBC1014FF47A756A43B1F90240E0
:106550004968521A04EBD47102EB610292FBF4F227
:106560009042CFDBB3F902009042CBDC10B2C9E716
:1065700037F831E04E1CE645E3D33146DEE702480A
:10658000C0E700BF042100200080FFFF08B50448D9
:10659000FFF71CFFBDE80840012026F0FCBD00BF4E
:1065A000F0EF030000487047420D00207FB5022243
:1065B000084B0949CDE901234FF00073CDE90313DE
:1065C000052301A94FF0FF30059326F01AFE07B00E
:1065D0005DF804FB006A1800000204001B0603F0CB
:1065E000706300F00F000902034301F470611204AC
:1065F00002F470220B431343014A1360704700BF3B
:106600000020025C60B5054619B10139B1F5806F13
:1066100010D2094EF06810F48030FBD143EA01211A
:10662000120741EA050302F08052134343F000438E
:10663000736060BD0120FCE70020025C0122054B75
:106640009A60DA68D203FCD4D86820F00F00000406
:10665000000C70470020025C014B1868704700BFB7
:106660000040025C014B5868704700BF0010025C9C
:10667000014B186B704700BF0010025C014B18689B
:10668000704700BF0010025C014B9860704700BF6C
:106690000010025C014B1864704700BF0010025CE0
:1066A000014B5864704700BF0010025C014B5863F7
:1066B000704700BF0010025C0022014B1A60704757
:1066C0000010025C024A136843F001031360704734
:1066D0000010025C43F20402014B1A60704700BFD5
:1066E0000010025C024A136843F0300313607047E5
:1066F0000010025C044B1A6842F480721A601A6837
:1067000022F480721A6070470010025C024A13681B
:1067100043F48063136070470010025C034A1368FF
:1067200023F4702343EA0040106070470010025CBD
:10673000044B1A6902605A6942609A698260DB6997
:10674000C36070470010025C0268044B1A61426823
:106750005A6182689A61C268DA6170470010025C0F
:10676000024B1A6BD207FCD4186270470010025C0F
:10677000024B186B00F00E00704700BF0010025C67
:1067800082B01FB507930A9B04AC8B4228BF0B460F
:1067900004E907001048D100079948BF033301609E
:1067A000099948BF23F0030323F0704301F0E0414F
:1067B000194341F000518160002102F0E042019C48
:1067C000134343F00053C16004618361416304B02B
:1067D000BDE8104002B070470000025C3F22034B4E
:1067E0001A631022DA6103229A6370470000025C88
:1067F000024AD36B9B07FCD4704700BF0000025CC9
:10680000034B986A10F0240018BF0420704700BFA3
:106810000000025C08B5FFF7F3FF064BDB6B23F4C7
:106820007F4323F0EF0303431EBF0122024BC3F853
:10683000FC2F08BD0000025C00F0FF3F032208B5FA
:10684000054B186019615A63FFF7C8FFFFF7D0FFC7
:10685000BDE80840FFF7DEBF0000025C4268034667
:10686000182A10B50AD0202A1DD0102A2BD1174A79
:10687000D2F80424D4010AD4012013E0134AD2F838
:1068800004249001F8D50A6842F008020A60104812
:106890001A6882424FF000000ED10A6842F04002AE
:1068A0000A60586010BD094AD2F804245201E3D5A9
:1068B0000A6842F00402E9E7064CA242F2D10A68F3
:1068C00042F08002ECE70720ECE700BF0000025C2A
:1068D000022E0020032E00200B4607B50749D1F8F1
:1068E0000414C90708D5002100920246084600F0AA
:1068F0005BF803B05DF804FB0120FAE70000025CDE
:106900001346064AD2F80424D20504D50A460146A5
:1069100000201CF0A1BF0120704700BF0000025CF6
:1069200013B5084CD4F80444E40508D50093134685
:106930000A460146002000F061F802B010BD0120B7
:10694000FBE700BF0000025C13B5084CD4F8044418
:10695000E40508D5009313460A460146002000F0DE
:1069600071F802B010BD0120FBE700BF0000025C1F
:1069700070B504460D4616468CB00A4A09AB07CAE4
:1069800083E807001A462146CDE90563CDE90333C4
:10699000CDE9013300954FF480301CF081FE0CB03E
:1069A00070BD00BFB0E50300F0B51C465B6815463E
:1069B0008DB01A07129E1AD1CBB17268934216D1CC
:1069C0000C4B0D4A53F8217009AB07CA83E8070046
:1069D0001A462946CDE90533CDE90333CDE90163F4
:1069E000009447F480701CF05BFE0DB0F0BD0720F2
:1069F000FBE700BFBCE50300B0E50300F0B51646B9
:106A00005A688DB0102A0D46129F15D17A68102A47
:106A100012D10A4A09AC07CA84E80700224629466F
:106A2000CDE90547CDE90344CDE90144044800968A
:106A30001CF036FE0DB0F0BD0720FBE7B0E503000B
:106A400030000100F0B516465A688DB0102A0D4688
:106A5000129F15D17A68102A12D10A4A09AC07CAC6
:106A600084E8070022462946CDE90574CDE90344B0
:106A7000CDE90144044800961CF012FE0DB0F0BDB3
:106A80000720FBE7B0E503001000010082B070B5FD
:106A900086B0149D03AE202D86E807000B9359D8CD
:106AA00005EB85038B4203D006236B438B4253D106
:106AB0000C9BAB4250D10F9BB3EB450F4CD1129ABC
:106AC000934249D1012229462220159BFFF79AFDC6
:106AD000044630BB034606220E210C20FFF77EFD44
:106AE0000123CDE900332B4696E807001CF075FD25
:106AF0000E230BAA009307CA2B461CF0B9FC0C23EB
:106B0000164C00930EAA2B4607CA1CF0E1FC6368E2
:106B100023F07F0343F026036360FFF78FFD30B15E
:106B20000624204606B0BDE8704002B07047636896
:106B300023F07F0343F022036360FFF77FFD0446E9
:106B40000028EDD1062311AA009307CA2B461CF09A
:106B5000F2FCE6E70124E4E70724E2E70020025C18
:106B600070B598B0002843D02C4C08AD0FCC0FC5A1
:106B70000FCC0FC50FCC0FC594E80F0085E80F00B0
:106B80006D4604AE04F1100320340FCB85E80F00EE
:106B900094E80F0086E80F00FFF7ACFD0420FFF734
:106BA000BDFDFFF797FD3046FFF7CEFD002408AE90
:106BB00056F8040B0134FFF7D3FD102CF8D1FFF782
:106BC00051FD0328FBD90024FFF776FD2646FFF789
:106BD00043FD55F8043B01365840042E44EA0004B6
:106BE000F5D12CB1012206200D4B1A7018B070BDE2
:106BF000FFF780FD0820FFF747FD0020FFF74AFD63
:106C00000720FFF74DFD4FF40070FFF74FFD082000
:106C1000FFF784FDFFF756FD0020E7E798E6030045
:106C2000052E002008B5FFF765FD0122014B1A7003
:106C300008BD00BF042E002030B589B005AC84E843
:106C40000700FFF715FDC30501D5FFF7EBFF0A4D60
:106C50002B781BB11CF07BFF00232B70074B069A8F
:106C6000D3E901018DE8030002921B6894E8070054
:106C70001CF076FE09B030BD042E0020F8E60300BB
:106C80001FB51CF064FF044630B1012206240D4BF1
:106C90001A70204604B010BDFFF7DEFC0090FFF72D
:106CA000DBFC0190FFF7D8FC0290FFF7D5FC0390C6
:106CB0006846FFF749FDFFF7B5FFFFF713FDFFF744
:106CC00025FDE6E7052E002005289ABF014B185C3C
:106CD0000020704704E7030030B5154B87B00293DE
:106CE000144B0390049346F611030D46059300F0F0
:106CF0006DF91428044616D168461CF0E0FF4FF0E9
:106D0000A843032202A95A6319601D619A63DA6BD2
:106D10009207FCD1142C02D168461CF0DEFF00F073
:106D200089F9044601E00028E9D0204607B030BDCB
:106D30001C210020040000202DE9F04FB1B00546D1
:106D40008C46E9466E4F3B9EDDF8F8E0409C07F12B
:106D5000100AC846386879680837A8E8030057451C
:106D6000C146F6D10EEB0208C8F1000909F00F097F
:106D7000002E00F0AF80774207F00F070121DDF809
:106D8000FCB0C4F1100ACDF810B0059144F00051E8
:106D900006914FEA0A2101F4F85141F021010791CF
:106DA00006B96B460893002D40F09680002C00F049
:106DB000938004AB0993002E00F0908046F00053BE
:106DC0000A93002D40F08D80002C14BF0123212355
:106DD00043EA07230B9308A942F00053CDF830C0D3
:106DE0003D980D910E934FEA092343F041030F9311
:106DF000109002B10CA9002A16BF00224FF00052D9
:106E0000412342EA0E021191129213933C9B3D4A98
:106E1000149310AB15933C4B0021169340F61103CD
:106E200017933A4B002D08BF1346189314AB1993D0
:106E3000374B10221A9311231B931CAB184626F0D4
:106E4000A2FE01221D924AF080421E9200220346B9
:106E5000239205B9EB46102C08BF01230DF1900ACF
:106E6000102200215046CDF880B02193229426F0C4
:106E70008AFE002C37D020AB002125938F4218BF0B
:106E8000534647F0804226923A9A2CA88A4228928A
:106E9000299313460CBF4FF080430B461022334317
:106EA0002B912A9326F06FFEFEB95346C8442D93CA
:106EB0002CA948F0804318A82E93FFF70DFF30B996
:106EC0002DB90346A34212D1002818BF2C2031B09F
:106ED000BDE8F08F102751E701236BE747F000531F
:106EE0006EE7212374E70123C6E728ABDEE703F151
:106EF000C0026A4412F8C02C01331043E2E700BF1D
:106F00000AE703001CE703001000002020E703004D
:106F100004000020F0B5C0299FB0249E4FD0B1F5E9
:106F2000807F04D0802941D029201FB0F0BD40F2DD
:106F3000344440F21445002E08BF2C46212710256A
:106F4000019401240296039404950597259F0697C2
:106F500006B102AC07940124089509940A922122F3
:106F60000B940C950D92174A0AAC0E92164A0F9488
:106F7000109242F6110211921293139414951592E5
:106F800001AA1692CBB112AB1793042318931123C5
:106F9000199316AB1A901B9340F61103C9081C9164
:106FA0001AA806A91D93FFF797FEBEE7002E14BF8F
:106FB0004FF486644FF48264C0E70EABE4E70F2021
:106FC000B3E700BF24E703001000001038B5164BEC
:106FD0005A6E42F004025A66D3F8802242F001024F
:106FE000C3F88022114B5B68C3F3080343B14FF031
:106FF000A842D36B13F0430FFBD11424204638BDB5
:107000004FF0A843DC6B14F04304FBD1084D2B6810
:107010001BB90421284603F0B1FA2B68013343F071
:1070200000432B60EAE700BF0080005000ED00E065
:107030001C210020014B00205B68704700ED00E040
:107040004FF40052034B00209A660322C3F86022DB
:10705000704700BF0090005008B5FFF70FFBC30753
:1070600008D5FFF785FB062804D00A28F5D1FFF7DD
:10707000D9FDF2E74FF40052034B00209A66032239
:10708000C3F8602208BD00BF00A000501FB54FF438
:107090000052164B9A660322C3F86022FFF7EEFAFD
:1070A000C30710D401201CF05FFD002814BF6FF04F
:1070B00092040024FFF7D0FF00280CBF20466FF099
:1070C000920004B010BD10220021684626F05BFD3E
:1070D0006846FFF72DFBDDE900321343029A1343A4
:1070E000039A1343DED00024E4E700BF0090005071
:1070F000012300F01F02A0F506200949A0F5506009
:107100004009934051F820201A4341F820200549B6
:1071100051F8202022EA030341F82030704700BFD5
:1071200020210020342100200121A0F506230F4A50
:10713000A3F550635B0900F01F0001FA00F052F85C
:10714000231008430A4942F82300D1E900300344E0
:1071500088680344C868096903445B1802BFC2E930
:107160000033C2E902331361704700BF34210020AD
:10717000202100202DE9F04FA9B002921F46DDE941
:10718000328904460822CDE90301414021FA02F385
:107190004B40980702F1080218BF9B00202A1C44AC
:1071A000F4D18123B4FBF3F303EBC313E41A784B5C
:1071B00004F506241B7804F55064002B3CD1FDF740
:1071C00009FC014620B16FF0910029B0BDE8F08FB5
:1071D0004022059008A826F0D6FC4022059918A860
:1071E00026F0D1FC6B4EDFF8C4A1334603F10F0B40
:1071F000102208A9DAF80000CDF800B0059325F0B8
:1072000063FD00220146059B103608AD914244D132
:10721000CDF800B01022DAF8000018A925F05DFDC5
:107220004FF0000B034618AD5B4542D15A4B9E42CE
:10723000DBD10122564B1A7081250026DFF86CA1A4
:10724000A4F50623554AA3F550635B0952F82320A1
:1072500004F01F01CA40D2073ED4514A52F823001D
:10726000C84010F001002DD0002E08BF2646812313
:10727000A4F50724A4F2FF44B4FBF3F303EBC31318
:10728000E41A04F50624013D04F55064D8D1029BAC
:10729000D3B1CEB1349B1E6063E055F8040BCDE949
:1072A00006230591FFF724FF069A079B05990132F3
:1072B000ACE755F8040B05930BF1010BFFF734FF16
:1072C000059BB1E7029B13B96FF08B007DE7349B00
:1072D000002E45D01E6078E7B8F1000F02D00023E1
:1072E000C8F80030B9F1000F02D00023C9F800300F
:1072F0004FF0100B00233A462146DAF80000CDF893
:1073000000B013F0B5F870BBB8F1000F01D0C8F8A9
:1073100000B03B68234A93422FD1B8F1000F11D03F
:10732000B9F1000F0ED04B462146DAF8000018AA3A
:1073300013F0F2F8B8B9D9F80030D8F800209B1A49
:10734000C9F80030D7E90223DDE90310834208BF02
:107350008A428CD1029B13B17B68012B15D0349BE0
:107360001C60002031E7104B984206D0123398423F
:1073700003D0133B9842E5D025E72146DAF8000018
:1073800013F010F90028DDD09EE76FF084001CE7B1
:10739000062E0020006D080000710800202100204A
:1073A00034210020105D175EFFDF00F00C0B002081
:1073B0002DE9F04F87B08246894698461646DDF89B
:1073C00040B02AB1002B4ED040F26C739A424DD897
:1073D000BBF1010F4DD8002406F1100739460120FA
:1073E00005941DF0DDFB0546002845D021463A46B0
:1073F00026F0C9FB05ABCDE9014300942B460122E1
:1074000050464946FFF7B6FE044680B110F18C0F96
:1074100008BF6FF08D043A460021284626F0B3FBE2
:1074200028461DF0CEFB204607B0BDE8F08F144B78
:10743000C5E902A92B60C5F804B02EB13246414619
:1074400005F1100026F078FB0E483B462A460599C8
:10745000006812F075FF18B90598FFF749FEDAE7E2
:107460006FF09104D7E76FF08604DCE76FF09104CA
:10747000D9E76FF08504D6E76FF08C04D3E700BF3F
:10748000105D175E0C0B00202DE9F0438DB0814696
:10749000DDE914780C4615461E469BB1B8F1000F85
:1074A00005D16FF0860420460DB0BDE8F083002FB3
:1074B000F7D0B7F1005FF4D3C3F1005303F50043F5
:1074C0009F42EED81022002108A826F05CFB002283
:1074D00007AB029305AB019306AB214600934846E8
:1074E00008ABCDE90522FFF745FE04460028DAD1B6
:1074F0000599DEB1A94203D80029D2D115B1D0E750
:107500000029FBD0491BB14228BF3146069B0948E0
:10751000C8F8001000913A46079900682B4412F011
:10752000A7FF002818BF6FF09104BCE7A942E9D279
:10753000B7E700BF0C0B002030B58DB00C460546F8
:107540001022002108A826F01EFB002207AB0293A0
:1075500005AB019306AB21460093284608ABCDE965
:107560000522FFF707FE0446D0B9099B012B1AD06C
:10757000104B0799186813F015F8B8B9012207984D
:107580000D49A0F50623A3F550635B0900F01F0524
:10759000AA4051F823506A4041F82320FFF7C4FD68
:1075A00020460DB030BD6FF08404F9E76FF0910410
:1075B000F6E700BF0C0B0020202100202DE9F0434E
:1075C0008BB01746DDE91545DDE913269C46DDE95C
:1075D0001738894621B96FF086000BB0BDE8F083FB
:1075E000002FF8D00EB9002CF5D1129909B9002A54
:1075F000F1D10DB9002BEED1B8F1000FEBD0254A37
:10760000944544D10288B2F5105F40D14288B7EB6F
:10761000D20FE0D322F04001802902D0B2F5807F62
:10762000D9D11CB92046C8F80040D6E7AE421CD2DA
:107630003219954219D29C42CDD83146224628466D
:1076400026F087FA2E4614F00F03C4D1CDE9019736
:10765000CDE90336CDE90543CDE907540993FFF79A
:10766000EFFC38B16FF09200B7E79C42EBD96FF0B6
:107670008900B2E707AA04A901A8FFF72DF905467A
:10768000FFF7EAFC2843EDD1C8F80040A5E76FF00A
:107690008500A2E7004440042DE9F04FA9B08346DD
:1076A00017469A460E46DDF8C890DDF8D88029B90D
:1076B0006FF08603184629B0BDE8F08F002AF7D096
:1076C000B9F1000FF4D0349B002BF1D0B8F1000FCA
:1076D000EED00024434B0CAD93E8070085E807008B
:1076E0003C22214619A8189426F04DFA3288718858
:1076F00002F4E040B0F5804FDAD03B4E3B480BEA55
:10770000060646F01066864265D1B1F5807F62D1EB
:1077100047F212118A425ED106203549BAF11F0F95
:107720000A69CB6800FB02F209680B93CDE90C12E1
:107730000E94BDD9339B402BBAD9359B1F2B4DD905
:1077400009F1010220261292402299F800300F9789
:10775000042B18AFCDE91324CDE9157210961194BE
:107760001794A5D1FFF76CFC03460028A2D10B9B10
:1077700015AACDE9086305AB07CA83E8070002AB89
:1077800012AA07CA83E80700DDE910018DE80300AB
:107790000F9B95E80700FFF779F90546FFF75CFCBA
:1077A00055EA000384D13D46349A20AE2C4603CCE2
:1077B000B44210605160254602F10802F6D1002261
:1077C0001046B9180132412A03D12022C8F80020FE
:1077D00070E70870F5E76FF085036BE76FF08903DA
:1077E00068E700BFB0E503000000FFF600000209F3
:1077F00084E60300F0B50F461D468DB000285AD030
:10780000002958D0002A56D0002B54D00388B0F855
:1078100002C0194603F44F44B4F5824F18BF002349
:1078200021F0FF01B1F5E24FDBB203D06FF085002C
:107830000DB0F0BD122B01D0172BF7D10CF10701C1
:10784000B2EBD10F4FEAD10638D31F4A06ACBCF5D4
:10785000807F07CA84E80700E8D1122B07D11B4BB1
:107860001A691B681344CDE90632002308930023EC
:10787000CDE909760B93FFF709FC0028D8D1FFF773
:10788000DFFB0028D4D1124B1149059302AB0490C1
:1078900083E803000CAB13E903008DE80300099BA8
:1078A00094E807001BF0E2FF0446FFF7D5FB2043F6
:1078B00007D12E60BCE76FF08600B9E76FF0890052
:1078C000B6E76FF09200B3E7B0E5030084E603008B
:1078D000893B03002DE9F0438FB01D46DDE916C654
:1078E000002863D0002961D0002A5FD0002B5DD032
:1078F000BCF1000F5AD0002E58D00388B0F802E037
:107900001C4603F44F47B7F5824F18BF002324F0FD
:10791000FF00B0F5824FDBB24ED0B7F5824F4BD1AE
:10792000122B01D0172B47D10EF10700B2EBD00F6D
:107930004FEAD0083AD34FEA4802571C674538D877
:10794000BEF5807F38D1122B18BF4FF000094FF0E1
:10795000000308BF1B4CCDE9081805F1010114BF55
:107960004C46D4F80C90CDE90B120A930D93FFF717
:1079700067FBC0B9CDE9058902AB08AA07CA83E84D
:1079800007000EAB13E903008DE803000B9B94E89E
:1079900007001BF08AFF0446FFF75EFB20430ED171
:1079A00004232B7037600FB0BDE8F0836FF08600C2
:1079B000F9E76FF08900F6E76FF08500F3E76FF005
:1079C0009200F0E784E603002DE9F04389B00D460C
:1079D00014461F46DDF8488020B96FF0860009B0D4
:1079E000BDE8F0830029F8D0002AF6D0B8F1000FE6
:1079F000F3D0028802F44F43B3F5824F0CBF134615
:107A00000023DBB202D06FF08500E8E7122B01D033
:107A1000172BF8D122F0FF02B2F5E24F40D1428895
:107A2000C8F80020002A36D1E200C8F80020D8F8B3
:107A30000020B2F5807FE6D1122B09BF384B00221F
:107A40001A681B6905EB040608BFD2180023184604
:107A5000224412F801CD16F8011D0843B1EB0C01C8
:107A60000CBF4FF0FF3C4FF0000CB5420CEA030393
:107A700043EA0103EDD10028AFD0002BADDA109B13
:107A80009C4249D822462946384626F055F8119B93
:107A900000201C60A3E70732B4EBD20FC7D09CE7ED
:107AA0002A78042A99D1621ED2005208B2F5807F4A
:107AB000C8F80020A7D1122B05F1010318BF4FF021
:107AC00000094FF0400205934FF000030ABF144E27
:107AD0004E46D6F80C90CDE90623FFF7B1FA002800
