S015000062745F736F635F656D7074795F332E73333745
S214012000C00A0020F13A0100CD2B0300CD2B0300BE
S2140120103B3E0300CD2B0300CD2B0300CD2B03004D
S214012020CD2B0300CD2B0300CD2B0300CD2B0300BE
S214012030CD2B03002CF10300DD290300CD2B03007B
S214012040CD2B0300CD2B0300CD2B0300CD2B03009E
S214012050CD2B0300CD2B0300CD2B0300CD2B03008E
S214012060CD2B0300CD2B0300CD2B0300CD2B03007E
S214012070398B0100CD2B0300CD2B0300293801003D
S214012080952A0300CD2B0300CD2B0300CD2B030097
S214012090CD2B030015420100CD2B0300CD2B0300F1
S2140120A0CD2B0300CD2B0300CD2B0300CD2B03003E
S2140120B0CD2B0300110C0300CD2B0300FD150300EF
S2140120C039E3030035E30300F10D030045E30300A4
S2140120D03DE30300D515030041E303003D1603006D
S2140120E099EF02006DF10200A9160300CD2B030043
S2140120F0CD2B0300CD2B0300CD2B0300CD2B0300EE
S214012100CD2B0300CD2B0300CD2B0300CD2B0300DD
S214012110CD2B0300CD2B0300CD2B0300CD2B0300CD
S214012120CD2B0300CD2B0300CD2B0300CD2B0300BD
S214012130CD2B0300CD2B0300CD2B0300CD2B0300AD
S214012140002370B5404C05468AB0E36318B1008899
S21401215023600DF0FFFA3D482BF09BFB3C4E3D4BB8
S214012160304633603C4B736025F0E6FD0021304677
S21401217018F0E6FD32A3D3E90023A062C4E90623E2
S21401218025F0E5FDD4E90623194310434FF0FF334C
S214012190C4E90601CDE900014FF0FF32A06A2BF039
S2140121A0E1FB02224FF0FF31A06A2BF0E0FB012099
S2140121B00DF068F84FF4007300222849A06A2BF04E
S2140121C02FFCB0F5007F38D100239422CDE90733E8
S2140121D009933C23CDE9033205939623A06A03A90C
S2140121E0069318F0C9FE35B3287C0DF009FD0546A7
S2140121F0F0B9A06A2BF0F5FC0DF0AAFC0DF024F85E
S21401220020B14FF4807000210AF012FD0DF02CF879
S21401221020B14FF4006000210AF00AFD25F05BFDB5
S214012220012018F0E1FD0E4A0E49A06A25F082FD54
S21401223028460AB070BDFF20D7E70725F8E700BF9C
S2140122400DD501552000000010100020690345EC53
S214012250C0230020BDF90100B4230020B4210020D2
S214012260DD7C03001D7D030010B5054C237833B9D2
S214012270044B13B1044800E000BF0123237010BDD6
S2140122806012002000000000803F040008B5034BE8
S2140122901BB10349034800E000BF08BD0000000071
S2140122A064120020803F0400A3F5803A704700BF07
S2140122B0174B002B08BF134B9D46FFF7F5FF002178
S2140122C08B460F461348144A121A2CF088F80E4B08
S2140122D0002B00D098470D4B002B00D098470020CC
S2140122E0002104000D000D48002802D00C4800E033
S2140122F000BF1FF009FC2000290020F063FB1FF03F
S214012300EFFB00BF00000800000000000000000016
S214012310C00A0020A00F0020842A00200000000030
S2140123200000000002289ABF024B53F82000024822
S214012330704700BFECEB0300F0E60300F7B56E460E
S21401234000240A4B86E803001F78094DA74202DCE9
S214012350002003B0F0BD2846062231462CF008F8CE
S2140123600A3508B10134F1E70120F2E750290020CF
S214012370F728002030B5084B01461C780023074A91
S214012380D8B2844201D8FF2005E0557A01338D4248
S21401239002F10A02F4D130BD50290020F7280020AE
S2140123A02DE9F3416D46052485E803000D4E0E4FD9
S2140123B0DFF8388020F0BAFB20F0B9FB39462A5DF9
S2140123C0306821F082FB3CB120F0B0FB20F0AFFB7F
S2140123D04146306821F079FB013CEBD202B0BDE802
S2140123E0F08100BFA0130020F8E603005BE90300BC
S2140123F02DE9F74F2C4C20F099FB20F098FB2B4948
S214012400206821F062FB20F091FB20F090FB284928
S214012410206821F05AFB274D20F088FB20F087FB2F
S2140124202549206821F051FB20F080FB20F07FFB3E
S2140124301F49206821F049FB00262F46DFF88480DB
S214012440DFF88490DFF884A098F80030B3420ADC05
S21401245020F06CFB20F06BFB1849206803B0BDE848
S214012460F04F21F032BB0A237343FA1811795279DF
S214012470F85841EA0221FFF793FF20F057FB20F0BE
S21401248056FBEB79287A002B0CBF4A465246FFF7DB
S21401249049FFD4F800B06B7A00900949584621F0FC
S2140124A014FB01360A35CFE7A0130020FDE6030032
S2140124B03CE70300F728002079E7030035EA03002C
S2140124C0B0E703005029002021EC030019EC0300BB
S2140124D010B520F067FA094C48B120F027FB20F030
S2140124E026FB07492068BDE8104021F0EEBA20F02F
S2140124F01DFB20F01CFB0349F4E700BFA0130020DE
S214012500C4E70300E6E703002DE9F04F0368B14A8C
S21401251023F47F4323F00703934204468FB000F071
S2140125209F841FD802F17E42934200F053830CD859
S214012530A2F5A022934200F0C28002F580229342C7
S21401254000F098820FB0BDE8F08FA34A934200F0E6
S214012550C78502F540329342F4D1D0F805209F4B4F
S2140125601A60EFE79E4A934200F0418566D802F171
S2140125707E42934200F0F58402F578029342E1D15F
S2140125804368DB07DED5974C20F0D0FA964D20F055
S214012590CEFA9649206821F098FA20F0C7FA20F082
S2140125A0C6FA9349206821F090FA2878FFF7E2FEF0
S2140125B00A2250438F4B1A1811795279185841EA5A
S2140125C00221FFF7EDFE20F0B1FA20F0B0FA8A49B9
S2140125D0206821F07AFA20F0A9FA20F0A8FA2A78E1
S2140125E08649206821F071FA287810F073F90546BB
S2140125F0002800F0EC828249206821F066FA8149C1
S214012600206821F062FA20F091FA20F090FA7E4BD1
S2140126107E4A00937E494FF4E273206821F055FA12
S2140126207C492B467C4A206821F04FFA284601F067
S214012630DDF97A49206821F048FAFEE7784A9342A4
S21401264080D1784B1978002900F098840022654DD6
S2140126501A7020F06BFA20F06AFA7349286821F0A4
S21401266034FA5E4920790222704B096810F05AF953
S2140126700446002800F07D846149286821F025FA87
S2140126806049286821F021FA20F050FA20F04FFA2C
S2140126905D4B5E4A00935E4940F23E23286821F076
S2140126A014FA5C4923465C4A286821F00EFA204653
S2140126B001F09CF95949286821F007FAFEE7494DCF
S2140126C020F034FA20F033FA5949286821F0FDF950
S2140126D020F02CFA20F02BFA6389564901932389BE
S2140126E00093E388A288286821F0EFF90DF127010D
S2140126F00AA810F0BDF9044608B34149286821F03C
S214012700E4F94049286821F0E0F920F00FFA20F0BA
S2140127100EFA494B3D4A00933D49FB23286821F0B8
S214012720D4F93C4923463C4A286821F0CEF9204694
S21401273001F05CF93949286821F0C7F9FEE79DF8F0
S2140127402D3001468DF830309DF82C3008228DF85A
S21401275031309DF82B3018208DF83230FF238DF85C
S2140127603330FE238DF834309DF82A308DF835301D
S2140127709DF829308DF836309DF828308DF83730A1
S2140127800CAB10F00FF90446002857D01C492868F6
S21401279021F09BF91B49286821F097F920F0C6F92A
S2140127A020F0C5F9244B194A0093194940F20B133E
S2140127B0286821F08AF917492346174A286821F024
S2140127C084F9204601F012F91449286821F07DF9B0
S2140127D0FEE700BFA0000602A0000601C00A002016
S2140127E0A0000904A0130020F528002027E9030013
S2140127F03DE90300F728002035EA03005DE9030000
S2140128005EE803007FE8030006EC030084E80300AB
S2140128108DE803009CE8030099E80300B1E8030093
S214012820A000090648290020DEEA030015EC030093
S21401283018E8030060E80300F8EB030020F076F9DF
S21401284020F075F99DF828309DF8270004939DF82F
S2140128502930A94903939DF82A30A84A02939DF886
S2140128602B30002808BF0A4601939DF82C30A44956
S214012870009328689DF82D3021F027F920460A227A
S214012880142110F0BDF8044610B39E49286821F0C3
S2140128901CF99D49286821F018F920F047F920F025
S2140128A046F99A4B9A4A00939A494FF4A8732868B6
S2140128B021F00BF998492346984A286821F005F932
S2140128C0204601F093F89649286821F0FEF8FEE7C5
S2140128D00121084610F0B8F8044610B38949286863
S2140128E021F0F3F88849286821F0EFF820F01EF966
S2140128F020F01DF9854B864A009386494FF4AA734A
S214012900286821F0E2F884492346844A286821F0A1
S214012910DCF8204601F06AF88249286821F0D5F8EB
S214012920FEE7814E30460FF045FF044610B3754969
S214012930286821F0CAF87449286821F0C6F820F002
S214012940F5F820F0F4F8714B714A009371494FF491
S214012950AC73286821F0B9F86F4923466F4A286896
S21401296021F0B3F8204601F041F86D49286821F0BE
S214012970ACF8FEE7022130780FF056FF044610B39C
S2140129806049286821F0A1F85F49286821F09DF880
S21401299020F0CCF820F0CBF85C4B5D4A00935D4903
S2140129A040F25D13286821F090F85B4923465B4AA4
S2140129B0286821F08AF8204601F018F85849286856
S2140129C021F083F8FEE7A0220090034611463078F6
S2140129D00FF008FF044610B34A49286821F075F83D
S2140129E04949286821F071F820F0A0F820F09FF8F6
S2140129F0464B474A009347494FF4B373286821F082
S214012A0064F845492346454A286821F05EF8204681
S214012A1000F0ECFF4249286821F057F8FEE7022152
S214012A2030780FF015FF044600283FF48BAD35498A
S214012A30286821F04AF83449286821F046F820F041
S214012A4075F820F074F8314B314A009331494FF450
S214012A50B573286821F039F82F4923462F4A28688C
S214012A6021F033F8204600F0C1FF2D49286821F0F7
S214012A702CF8FEE72D4E3378082B3FF463ADDFF8D4
S214012A80BC9099F80030002B7FF45CAD284B1B7886
S214012A90002B7FF457AD274B1B78002B7FF452ADEC
S214012AA0254B1D78002D7FF44DAD837DDFF890B06A
S214012AB0013B069300F1170A069B9D42BFF642AD05
S214012AC06319DF7D1B7E023B012B11D805F102083D
S214012AD0EB19022258460AEB080107932BF048FC33
S214012AE0002800F0C683079B08F102089845F0DB32
S214012AF03D440135E0E700BF0AE80300FCE70300B8
S214012B00C2E803005EE803007FE8030006EC03006A
S214012B1084E803008DE803009CE8030099E80300BD
S214012B20B1E80300F7E80300A00D002050290020BB
S214012B30492900204829002047290020F4280020A0
S214012B4017EC03000A233278D4F805005A43AF493C
S214012B508B188850B4F809204FF448119A80E27A0D
S214012B60AB489A7199F80020DF715A7283F8088091
S214012B70A84A3B46CDE9007721F095F9044610B303
S214012B80A549286820F0A1FFA449286820F09DFFE8
S214012B901FF0CCFF1FF0CBFFA14BA24A0093A24926
S214012BA04FF4D773286820F090FFA0492346A04A27
S214012BB0286820F08AFF204600F018FF9D49286803
S214012BC020F083FFFEE7337801333370BAE49A4B83
S214012BD01870B7E4994D1FF0A9FF1FF0A8FF984998
S214012BE0286820F072FFE77A012F40F0A18088481C
S214012BF005F090FD064610B38749286820F065FF6A
S214012C008649286820F061FF1FF090FF1FF08FFFB4
S214012C10834B844A009384494FF4E973286820F073
S214012C2054FF82493346824A286820F04EFF3046D8
S214012C3000F0DCFE7F49286820F047FFFEE71FF022
S214012C4075FF1FF074FF7F49286820F03EFF207B48
S214012C5002217D4A0FF050FE044610B36E492868E3
S214012C6020F033FF6D49286820F02FFF1FF05EFF2C
S214012C701FF05DFF6A4B6B4A00936B494FF4ED738F
S214012C80286820F022FF69492346694A286820F00F
S214012C901CFF204600F0AAFE6649286820F015FFB2
S214012CA0FEE76A4B1F70644B18700A20684B1A784F
S214012CB0564B511E00FB01330121082A197278D1A7
S214012CC01FF034FF1FF033FF6249286820F0FDFE35
S214012CD01FF02CFF1FF02BFF5F49286820F0F5FE40
S214012CE00FF0A6FE0446002837D04B49286820F08E
S214012CF0ECFE4A49286820F0E8FE1FF017FF1FF097
S214012D0016FF474B474A009347494FF4FF7328681D
S214012D1020F0DBFE45492346454A286820F0D5FECB
S214012D20204600F063FE4349286820F0CEFEFEE709
S214012D30002FBAD10A21464867680378334E5943B3
S214012D407218775021899180A17A9171217B5172F5
S214012D5001210B44D1710370A7E7404B0146187857
S214012D600FF076FD044600283FF4ECAB2A492868AC
S214012D7020F0ABFE2949286820F0A7FE1FF0D6FEFA
S214012D801FF0D5FE264B274A0093274940F202231F
S214012D90286820F09AFE25492346254A286820F00F
S214012DA094FE204600F022FE2249286820F08DFE7F
S214012DB0FEE72A4B022118780FF04AFD0446002848
S214012DC03FF4C0AB1449286820F07FFE13492868F9
S214012DD020F07BFE1FF0AAFE1FF0A9FE104B114A41
S214012DE00093114940F20723286820F06EFE0F4930
S214012DF023460F4A286820F068FE204600F0F6FDBC
S214012E000C49286820F061FEFEE700BFF728002085
S214012E107C1200209D2903005EE803007FE8030082
S214012E2006EC030084E803008DE803009CE8030039
S214012E3099E80300B1E80300F4280020A01300205D
S214012E4073E9030084E9030017EC03004829002016
S214012E5050290020A5E90300D6E90300A00D0020B3
S214012E600079FFF787FA0A260022834D834F06FB77
S214012E700053DFF86882387000EB800005EB4004F1
S214012E801A724FEA40090622214640462BF070FA94
S214012E9000283FF457AB55F80930C8F80030A3882E
S214012EA0774CA8F804301FF041FEDFF82C821FF0A3
S214012EB03EFE7449206820F008FE1FF037FE1FF022
S214012EC036FE7149206820F000FE98F80030013B7C
S214012ED07343EA1811795279E85841EA0221FFF75B
S214012EE05FFA1FF023FE1FF022FE6849206820F0DB
S214012EF0ECFD1FF01BFE1FF01AFE3B78644A06FB32
S214012F000353D979634B2068002918BF1A466249D2
S214012F1020F0DBFD1FF00AFE1FF009FE3B785F493B
S214012F2006FB035520686A7A20F0CFFD1FF0FEFDF0
S214012F301FF0FDFD98F800205949206820F0C5FDD6
S214012F401FF0F4FD1FF0F3FD98F8002055492068A6
S214012F50C2F1080220F0B9FD0FB0BDE8F04FFFF74F
S214012F6047BA8279437943EA02234F4A1380FFF72F
S214012F70E9BA4E4B01221A70FFF7E4BA4B4B1A78A6
S214012F80002A2ED01970484B0222198800790FF0BA
S214012F90DFFC054618B33A4C4549206820F095FDFC
S214012FA04449206820F091FD1FF0C0FD1FF0BFFDD1
S214012FB0414B424A0093424940F24B23206820F09D
S214012FC084FD40492B46404A206820F07EFD284675
S214012FD000F00CFD3D49206820F077FDFEE73C4BF4
S214012FE0C8E73B4B197800293FF4ACAAC3E7C3797D
S214012FF01D2B3AD100790FF0C3FC214D064610B3C4
S2140130002B49286820F061FD2A49286820F05DFDDB
S2140130101FF08CFD1FF08BFD274B284A0093284993
S21401302040F25B23286820F050FD26493346264AA5
S214013030286820F04AFD304600F0D8FC234928686D
S21401304020F043FDFEE71FF071FD1FF070FDE27AF0
S2140130502049286820F039FD1FF068FD1FF067FD44
S214013060227B1C49286820F030FDE07A0FB0BDE8CD
S214013070F04F00F081B900BFF7280020F6280020A5
S214013080A013002018EA030038EA030035EA03001B
S21401309021EC030019EC030056EA030078EA03006A
S2140130A09AEA0300BCEA0300740C002047290020BA
S2140130B05EE803007FE8030006EC030084E80300F3
S2140130C08DE803009CE8030099E80300B1E80300DB
S2140130D049290020E8EA0300502900204A29002057
S2140130E08D4D1FF023FD1FF022FD8C49286820F02E
S2140130F0ECFCA079FFF73EF90A27DFF87482884EC8
S21401310088F800001FF012FD1FF011FD85492868A0
S21401311020F0DBFC98F800307B43F21811795279E5
S214013120F05841EA0221FFF73BF91FF0FFFC1FF0C0
S214013130FEFCA2887C49286820F0C7FC7B4C98F8E6
S214013140003021784A1E934245DB01B12270FFF719
S2140131504FF91FF0EBFC1FF0EAFC2278744928684F
S21401316020F0B3FC1FF0E2FC1FF0E1FC227871496D
S2140131702868C2F1080220F0A8FC2378072B7FF408
S214013180E1A9012108460FF05FFC0446002833D070
S2140131906949286820F099FC6849286820F095FC60
S2140131A01FF0C4FC1FF0C3FC654B664A00936649DA
S2140131B040F28623286820F088FC64492346644A46
S2140131C0286820F082FC204600F010FC614928683F
S2140131D020F07BFCFEE707FB03F003F1010C03FB89
S2140131E00773F118F358321833504B6853600B8944
S2140131F013815FFA8CF3A4E71FF098FC1FF097FC8D
S2140132005549286820F061FC544B022118780FF0CC
S2140132101FFB044610B34849286820F056FC47496E
S214013220286820F052FC1FF081FC1FF080FC444B04
S214013230444A0093444940F28D23286820F045FC17
S21401324042492346424A286820F03FFC204600F0C7
S214013250CDFB4349286820F038FCFEE71FF066FCEA
S2140132601FF065FC3F4928680FB0BDE8F04F20F01D
S2140132702CBC294D06901FF059FC1FF058FC3A490A
S214013280286820F022FC069A94F809A01146A37A31
S214013290D4F805704AEA032A38466AF30F01FFF7A5
S2140132A04DF800287FF44EA94FF00108014689F831
S2140132B00080DFF8C0902D4BCDF8009038461B7883
S2140132C0E27A6AF30F010FF0D7FA074600283FF4B7
S2140132D039AC1949286820F0F8FB1849286820F00D
S2140132E0F4FB1FF023FC1FF022FC154B154A00933C
S2140132F015494FF4CC73286820F0E7FB13493B4689
S214013300134A286820F0E1FB384600F06FFB1449A9
S214013310286820F0DAFBFEE7A0130020EDEA0300A0
S214013320F728002004EB03000CEB030050290020D3
S2140133302BEB030052EB03005EE803007FE803007B
S21401334006EC030084E803008DE803009CE8030014
S21401335099E80300F7E8030079EB0300A00D0020CD
S214013360B1E803008FEB0300BCEB0300A10D0020C6
S214013370F6280020F5280020642307B5B0FBF3F2F9
S21401338002FB13000A23C0B2B0FBF3F203FB1203E5
S2140133900B49DBB2CB5C09288DF8043094BF7E2341
S2140133A08B5C02228DF80530064B01A9186801F0E6
S2140133B061F9003818BF012003B05DF804FB00BFB7
S2140133C02CEC0300F00A002030B503687F4A23F492
S2140133D07F4323F00703934289B040F0F48008222C
S2140133E0002112207A4B0FF0DDFA044610B3794D16
S2140133F07949286820F069FB7849286820F065FB40
S2140134001FF094FB1FF093FB754B764A00937649A9
S2140134103D23286820F059FB74492346744A2868DE
S21401342020F053FB204600F0E1FA7249286820F0AC
S2140134304CFBFEE70146032214206F4B0FF0B2FA55
S214013440044610B3634D6449286820F03EFB634987
S214013450286820F03AFB1FF069FB1FF068FB604B01
S214013460604A009360494B23286820F02EFB5F4991
S21401347023465F4A286820F028FB204600F0B6FA6B
S2140134805C49286820F021FBFEE70146052216204C
S2140134905A4B0FF087FA054610B34E4C4E4920683A
S2140134A020F013FB4D49206820F00FFB1FF03EFB78
S2140134B01FF03DFB4A4B4B4A00934B49592320686A
S2140134C020F003FB49492B46494A206820F0FDFAC3
S2140134D0284600F08BFA4749206820F0F6FAFEE706
S2140134E00DF10F0104A80FF0C3FA044610B3394DCD
S2140134F03949286820F0E9FA3849286820F0E5FAC1
S2140135001FF014FB1FF013FB354B364A0093364968
S2140135106423286820F0D9FA34492346344A2868B7
S21401352020F0D3FA204600F061FA3249286820F0EC
S214013530CCFAFEE79DF8153001468DF818309DF857
S214013540143008228DF819309DF8133018208DF8A4
S2140135501A30FF238DF81B30FE238DF81C309DF8A2
S21401356012308DF81D309DF811308DF81E309DF803
S21401357010308DF81F3006AB0FF014FA054610B365
S214013580144C1549206820F0A0FA1449206820F050
S2140135909CFA1FF0CBFA1FF0CAFA114B114A00939E
S2140135A011497423206820F090FA10492B46104ADE
S2140135B0206820F08AFA284600F018FA0D4920689B
S2140135C020F083FAFEE709B030BD00BFA00001007D
S2140135D03CEC0300A01300205EE803007FE8030034
S2140135E077EC030045EC03008DE803009CE803003C
S2140135F099E80300B1E803006DEC030071EC0300E9
S21401360010B5234C01F0CEFA01F0EEFC236F23F047
S214013610070343F0030323671FF0A1FC1D4B0020A3
S2140136209B6A9B075EBF01221B4B9A62D4F820312E
S21401363023F0030343F00203C4F82031D4F8243105
S21401364023F0070343F00203C4F82431D4F84031D1
S21401365023F0030343F00203C4F84031D4F8603189
S21401366023F0030343F00203C4F86031D4F8403278
S21401367023F0030343F00203C4F84032D4F80032C7
S21401368023F0070343F00203C4F8003210BD00BF65
S2140136900080005000C0005000E0005008B502F065
S2140136A083F801280ED1144B04205A6E4FF4802360
S2140136B01249520358BF124A4B6601F5104108627F
S2140136C058BF536603F020FF1FF03DFA03F0AAFE31
S2140136D003F004FF03F0C8FE20F0A3F9FFF790FF04
S2140136E003F0B0FE1FF026FA00F0BAFA00F0CCFDA7
S2140136F0BDE8084004F058BB008000500090005020
S21401370000A0005030B5224D95B00DAC0FCD0FC4C2
S21401371095E80700032384E807008DF84D30292338
S2140137201C4A1D49CDE902231C4B1024CDE9041384
S2140137304FF480732246002109A806932AF04FFE13
S2140137404FF4A020164B07A9CDE907030F238DF8E8
S2140137502430144B0DAA0A9320230B9301238DF8D2
S2140137603130114B1148009302AB8DF8254004F01F
S214013770FFF804469DF832304FF4E130002B0CBFC1
S214013780032100211FF013FA204615B030BD00BFFB
S21401379068F0030000000650000500060008000758
S2140137A024000650512900209C120020F812002007
S2140137B0831E012B10B512D8012910D8114B0422F3
S2140137C01B6905210020C3F3401301F031FE0E4BA7
S2140137D01B681868A8B1BDE81040436A18478B1EDD
S2140137E0012B0CD801280CD8BDE810400022054B4F
S2140137F005211B691046C3F3401301F019BE0129C8
S214013800E5D910BD00C00350CC0A002008B5044914
S214013810044804F08DFBBDE80840FFF773BF00BF06
S214013820C40A0020F0120020014820F0BCBA00BFF4
S214013830F8120020014B1A6A18681047F812002087
S214013840024B0349186800F0E7BD00BFF00A0020EC
S214013850D00A00207FB500240368464A23F47F433C
S21401386023F00703934205468DF808408DF809407A
S2140138708DF80A408DF80B408DF80C408DF80D4000
S2140138806DD002F18272934271D1B0F80530342BBB
S2140138906DD1FF2304A91A4611E903001FF03FF971
S2140138A0012814BF41F2FC14334B4FF0340108BF1A
S2140138B0187004F0FC0228790FF08AF8064610B357
S2140138C02E4C2F49206820F000F92E49206820F060
S2140138D0FCF81FF02BF91FF02AF92B4B2B4A00930B
S2140138E02B494E23206820F0F0F82A4933462A4A0D
S2140138F0206820F0EAF8304600F078F8274920687A
S21401390020F0E3F8FEE71C4B1B78002B2FD028791C
S2140139100EF0E0FF054650B3184C1949206820F018
S214013920D4F81849206820F0D0F81FF0FFF81FF0EF
S214013930FEF8154B154A009315495423206820F0CC
S214013940C4F814492B46144A206820F0BEF82846CD
S21401395000F04CF81149206820F0B7F8FEE7064B56
S2140139601B7823B104B0BDE8704020F00EBB04B054
S21401397070BD00BFA000060171290020A013002021
S2140139805EE803007FE8030004F1030084F003000F
S2140139908DE803009CE8030099E80300B1E8030002
S2140139A0012208B5074B1A700022074B1A70042231
S2140139B0064B1A701F22064B1A7003F0CFFD054BFB
S2140139C0186008BDA20D002072290020A30D00205A
S2140139D0A40D0020A0130020024B0349186820F014
S2140139E074B800BFA013002024F1030070B50C4C7E
S2140139F00C490646206820F068F803F0AFFD05463E
S214013A00206803F09FFD3046FFF7E6FF284603F0E7
S214013A1099FD20680449BDE8704020F056B800BF03
S214013A20A013002026F1030028F103000022094913
S214013A300B684BB1834204D1836A4AB19362012079
S214013A4070471A469B6AF4E70028F5D01846704777
S214013A500B60F4E7A413002070B5104D2B681BB162
S214013A6000260F4B1C6804B970BD94F82C3093B136
S214013A701FF091FA2B6884F82C60013B2B601FF035
S214013A8090FA94F82D3013B92046FFF7CFFFD4E90A
S214013A90083120469847A46AE5E700BFA81300202E
S214013AA0A4130020034B1B68002B0CBF012004202D
S214013AB0704700BFA8130020024B1868B0FA80F0C8
S214013AC040097047A813002007B508201FF08EF89C
S214013AD002238DF80030054B684601931FF037F836
S214013AE0082003B05DF804EB1FF08CB8006A1810CC
S214013AF008B500F02DF8124B12498B4212D3002064
S214013B00114B12498B4218D3FEF7D2FB186850F8B6
S214013B102240586840F82240013298688242F5D324
S214013B200C33EAE70022F8E71C6844F82200013269
S214013B305C68A242F8D30833E4E70022F8E700BF46
S214013B40883F0400943F0400943F0400943F04001F
S214013B504FF400414FF0FF30124B134A10B59A60F4
S214013B60D3F8882042F47002C3F888200F4A916681
S214013B7001F1884101F5005210664FF6DF7050667C
S214013B800220C3F8D000BFF34F8FBFF36F8F082416
S214013B904FF440330648C0F88041D36004600B619F
S214013BA010BD00BF00ED00E00020010000900050B5
S214013BB000E100E0014B1868704700BFF80A0020DA
S214013BC0084B1B6F03F00703022B04D0032B05D011
S214013BD0012B05D0FEE7044B18687047034BFBE743
S214013BE00348704700800050F80A0020FC0A0020B5
S214013BF0002D310108B5FFF7E3FF054B1B6FC3F33B
S214013C0003330133B0FBF3F0024B186008BD00BF6D
S214013C1000800050F40A00200048704700B4C40435
S214013C20014B1868704700BFFC0A0020054B18605E
S214013C30054B1B6F03F00703032B01D1FFF7DABF18
S214013C40704700BFFC0A0020008000500048704703
S214013C50002D3101014B1868704700BF000B002092
S214013C600020836A10B5B3F5903F0ED21968084A52
S214013C7091420AD1074C227812F0FD0F04D1DB697C
S214013C80984708B90123237010BD4FF48170FBE7F4
S214013C9007B0CD5E732900204FF00053074A1A6023
S214013CA0BFF34F8F0649074BCA6802F4E06213431D
S214013CB0CB60BFF34F8F00BFFDE700BF02020FF0DE
S214013CC000ED00E00400FA0505490A6813180548E6
S214013CD083428CBF4FF0FF320B601046704700BF27
S214013CE0040B00200080002008B501213A2000F0D6
S214013CF07DFE032101230422002001F099FB002010
S214013D001FF06AF90122214B4FF46070C3F8442476
S214013D101FF05DF81E4B00F5D520D3F8F02000F219
S214013D20FC4042F00102C3F8F020D3F8FC2042F038
S214013D308072C3F8FC20174AA3F55D431A60164B40
S214013D400222B0FBF3F0154B01381861C3F8F020DE
S214013D504FF48072C3F804234FF06043104A0020EA
S214013D60C3F8B02F0F4AC3F8802ED3F8002E42F4C2
S214013D708072C3F8002EFF2283F82020D3F8002E8D
S214013D8022F48072C3F8002E08BD00BF00D0035095
S214013D9000ED00E0FF030040F8590D00000004E0CC
S214013DA055CEACC5090001004FF06043D3F8802E14
S214013DB030B5D20715D501240B4D8440D5F8FC202B
S214013DC042F08072C5F8FC20D3F8002E2243C3F8D7
S214013DD0002E53F82020002AF0D003F820100020EF
S214013DE030BD1120FCE700BF00ED00E02DE9F04FEB
S214013DF09A46564B85B01B7806460F461546DDF8A3
S214013E003C909DF844B0DDF85080002B00F08D808A
S214013E10072A00F28C800E9B002B00F08880B9F1F7
S214013E20000F00F08480129BB3F5006F7FDC012841
S214013E3002D1109B002B7AD0454B03EB05131B7B5D
S214013E40002B76D0434C1022002168462AF0C7FA90
S214013E5004EB45141022002F59D1394620462AF08A
S214013E60BEFA43F210036380BBF1000F03D1E3787F
S214013E7043F00303E370374A0E9B02EB451CCCE983
S214013E800193129B6901013BC3F30A009DF84C3074
S214013E90012E03F003034FEA836343EA001E5358DF
S214013EA02D48CDF800A000EA03004EEA0003535067
S214013EB041D113230CF1100ECCF80C309CE80F0006
S214013EC08EE80F006FF00301DCF81C20109B61F3F5
S214013ED09F02012FCCF81C20CCF8143003D1CCF86B
S214013EE01890CCF804300027194A290102EB051373
S214013EF042F80180159A28465A60694622469F6014
S214013F005E7301F035FB384605B0BDE8F08F002141
S214013F1020462AF064FA4FF444736380BBF1000F25
S214013F20A9D1E37843F03003A4E70C48ECE70C484A
S214013F30EAE70C48E8E7B8F1000FD4D19CF8023064
S214013F4068F304138CF80230CDE700BF7429002013
S214013F50AC1300202C1400200F80FFF3028000F029
S214013F60018000F0078000F038B5124B05461B783B
S214013F70DBB1E0B11FF00FF80F4A00231146147BA6
S214013F8054B92B6001251A0101EB03131D738C50E4
S214013F901FF007F8204638BD0133082B02F1100246
S214013FA0EDD11EF0FEFF0548F5E70548F3E70548A5
S214013FB0F1E700BF74290020AC130020048000F054
S214013FC0028000F0018000F013B51EF0E4FF00232C
S214013FD00B4A147B7CB90133082B02F11002F8D18D
S214013FE0019001F067FA074B01981C701EF0D9FF8B
S214013FF0204602B010BD1EF0D4FF0348F9E700BF0B
S214014000AC13002074290020058000F00D4B10B57C
S2140140101B78044693B1072812D81EF0BCFF0A4B42
S21401402003EB04131A7B2AB100241C731EF0B9FF9C
S214014030204610BD1EF0B5FF0448FAE70448F8E72D
S2140140400448F6E774290020AC130020068000F02F
S214014050028000F0018000F0154B13B518680023AC
S21401406001908DF804301EF096FF124B1C7824B197
S2140140701EF097FF104802B010BD01221A701EF004
S21401408090FF0E4B01A81C731C7783F82C4083F815
S2140140903C4083F84C4083F85C4083F86C4083F8DE
S2140140A07C4008238DF8073001F030FA2046E2E71D
S2140140B07CF1030074290020038000F0AC1300207B
S2140140C00A4A08B512785AB107280BD8084A02EBF3
S2140140D000131B7B43B1002101F00AFA002008BD42
S2140140E00448FCE70448FAE70448F8E77429002086
S2140140F0AC130020028000F0018000F0078000F081
S2140141000A4A08B512785AB107280BD8084A02EBB2
S21401411000131B7B43B1012101F0EAF9002008BD21
S2140141200448FCE70448FAE70448F8E77429002045
S214014130AC130020028000F0018000F0078000F040
S2140141400A4A08B5127852B107280AD8084A02EB7B
S21401415000131B7B3BB101F059FA002008BD05484E
S214014160FCE70548FAE70548F8E700BF7429002090
S214014170AC130020028000F0018000F0078000F000
S2140141800D4B1B7893B1072812D889B10B4B03EB63
S21401419000131B7B73B10A4B1A6D012303FA00F05F
S2140141A010401ABF00200B70087070470548704712
S2140141B0054870470548704774290020AC13002055
S2140141C000000450028000F0018000F0078000F03B
S2140141D00B4A10B512780C4662B107280CD859B1B3
S2140141E0084A02EB00131B7B43B101F021FA207051
S2140141F0002010BD0448FCE70448FAE70448F8E745
S21401420074290020AC130020028000F0018000F029
S214014210078000F02DE9F843174B1F6D5B6D1F40BB
S21401422000D5FEE701260025144CDFF85480DFF8A0
S2140142305490374217D02368C8F850609BB1A168E4
S214014240284601316268A1609847637B012B0AD139
S21401425048B909EB45131A7B60F341021A731A7FBA
S21401426060F341021A770135082D4FEA460604F13C
S2140142701004DED1BDE8F88300000450AC13002022
S214014280002004502C140020024B1968024B1868B9
S21401429016F06AB90C0B0020080B002037B5920007
S2140142A004460D4601922AF013FA431C0BD060B95E
S2140142B029462046019A2AF05BF80028044808BFE0
S2140142C0002003B030BD0348FBE70348F9E700BF11
S2140142D010E000F021E000F024E000F010B5044604
S2140142E02AF0EEF9431C10D088B901F065FA23468E
S2140142F020F003002044984201D1002010BD53F85D
S214014300042B0132F7D00348F8E70348F6E70348E1
S214014310F4E700BF0EE000F021E000F024E000F03A
S21401432008B51EF031FE014B186008BD6C1B00205D
S214014330014B18681EF02CBE6C1B002038B50546D4
S214014340B0B1B9B1B2B1B2F5006F13DC1EF023FE05
S21401435095F84C3003F0FF041BB11EF022FE064810
S21401436038BD012385F84C301EF01BFE2046F7E7CA
S2140143700248F5E70248F3E7032000F0012000F0C9
S214014380022000F02DE9F04717460022436390F81B
S2140143905C300446884686B080F85420C7634BBB21
S2140143A04FF4406346690568092E6B6125D90126DD
S2140143B005F12C0A44354FF0000920461EF0E6FCB4
S2140143C0144B216BCDE9026304F138025346A06A0F
S2140143D004940197CDF800901EF03BFC01232A4679
S2140143E00093CDE903994346CDE90176E16A606A17
S2140143F01EF015FC06B0BDE8F087A6F109030BBF59
S21401440005F1200A05F1240A38353C355E425E4145
S214014410D1E700BF4F2D03002DE9F04104468B4F35
S2140144208AB003AE0D460FCF0FC697E8070086E8A1
S2140144300700002C00F008811DB985480AB0BDE8C8
S214014440F08184220021204629F0C9FF2B68814A89
S214014450934240F0B180282222654FF480224FF02B
S21401446000087D4FC4E90B7226462F4646F8043BEA
S2140144700FCF0FC697E80F0086E80F006B7E012B63
S21401448008BF8DF81A30AB7E33B1012B40F0A28005
S2140144904FF40073ADF81C302B7E0121012B03BFB6
S2140144A000238DF819304FF4E133EB683A20059379
S2140144B000F09CFA0121206D00F098FA2B691A1F72
S2140144C00C2ABAD8033B286803A98DF8183001F0E6
S2140144D05DFAAB6923F47F0323F47F4323B9226893
S2140144E0936843F4803393602B7A2879697940EA9C
S2140144F003406B7AAA7941EA0341AB7AEE7E42EA3F
S2140145000342564B4FEA48184344002E6DD11D26F0
S214014510C3F81C66C3F83406C3F82C16C3F8302655
S214014520E97AEA7942EA0142C3F82026E37BE27A95
S21401453084F84530237F207A677AA57A217B94F820
S2140145400D80A67B84F84420002B58D104220193C9
S21401455000F06EFF019B01224146384600F068FFDD
S214014560A27F3146012A8CBF0123019B04222846E3
S21401457000F05EFFE37F3BB90123042294F8451067
S21401458094F8440000F054FF1EF005FD344B1A78F1
S214014590002A4ED101221A701EF003FD04F080F8A5
S2140145A0FFF75AFD002104F12400FFF7DDFC014668
S2140145B0002841D02B4841E72B4A93427FF43DAF78
S2140145C0292222654FF4A02228484FF00108C4E9A9
S2140145D00B0249E7022B02D14FF480735AE7032BF3
S2140145E07FF42BAF4FF4407354E71C25C3F81C56D9
S2140145F0C3F83406C3F82C16C3F8302696E7002312
S214014600012200F015FF002304224146384600F03F
S2140146100FFFA37F0222012B94BF00230123314603
S214014620284600F005FFE37F002BADD101230222CF
S214014630A4E71EF0B6FCB3E704F12800FFF794FCEC
S21401464000283FF4FBAEB5E70948F7E6A4F10300FE
S214014650022000F000C005500200040000C0035014
S21401466075290020092000F0000006500200050010
S214014670012000F070B5037F0446012B0D46164657
S2140146800DD0FFF75BFE48B9324629462046054B5A
S214014690FFF778FE20461EF030FBA06C70BD024886
S2140146A0FCE700BFF12C0300082000F0044BD3F810
S2140146B08420D206FBD4D3F88400C0F3811070475F
S2140146C00040005038B5104B0546D3F820310C4653
S2140146D003F00303022B0BD0032B0DD0012B0FD1BC
S2140146E0FFF768FA052305B1286004B1236038BDD9
S2140146F0FFF796FA0323F6E7FFF7A8FA0223F2E795
S21401470001230020EFE700BF0080005073B50D467F
S21401471000210E4B0191D3F88041064604F00304B4
S214014720012C09D0022C0CD00C460EB1019B336033
S21401473005B12C6002B070BD01A8FFF7C3FF0F24BE
S214014740F3E7FFF783FA0190EFE700BF0080005020
S21401475038B5184B0546D3F824010C4600F007007F
S214014760062805D8DFE800F0230B131B1F0F1700E0
S2140147700023184605B1286004B1236038BDFFF751
S21401478019FA0523F6E7FFF715FA0623F2E7FFF70E
S21401479047FA0323EEE7FFF743FA0423EAE7FFF7B6
S2140147A055FA0223E6E71EF012FA0723E2E7012391
S2140147B0E0E700BF0080005038B5104B0546D3F83F
S2140147C040310C4603F00303022B0BD0032B0DD014
S2140147D0012B0FD11EF0FDF9092305B1286004B1A4
S2140147E0236038BDFFF736FA0823F6E71EF0F4F922
S2140147F00B23F2E701230020EFE700BF0080005003
S21401480038B5144B0546D3F800020C4600F00700F5
S214014810042804D8DFE800F01B0A0E121600002355
S214014820184605B1286004B1236038BD1EF0D1F9E1
S2140148300923F6E7FFF70EFA0823F2E71EF0CCF994
S2140148400B23EEE7FFF7D6F90E23800AE9E70123EB
S214014850E7E700BF0080005038B5104B0546D3F897
S21401486040320C4603F00303022B0BD0032B0DD072
S214014870012B0FD11EF0ADF9092305B1286004B153
S214014880236038BDFFF7E6F90823F6E71EF0A4F922
S2140148900B23F2E700231846EFE700BF0080005025
S2140148A038B5104B0546D3F860310C4603F00303C8
S2140148B0022B0BD0032B0DD0012B0FD11EF089F943
S2140148C0092305B1286004B1236038BDFFF7C2F99A
S2140148D00823F6E71EF080F90B23F2E701230020F8
S2140148E0EFE700BF0080005010B40D4C0B46D4F823
S2140148F0204204F00304012C0AD0022C0CD008B18B
S214014900002101600BB100221A605DF8044B70476C
S2140149105DF8044BFFF7D6BE5DF8044BFFF74CBFBE
S2140149200080005038B50C4605461EF02DFB064BA0
S2140149309A6A82EA040101EA050454409C62BDE8D1
S21401494038401EF025BB00BF00C00050B0F5207FE8
S2140149501FD009D8B0F5007F15D003D868B1B0F5DF
S214014960C07F0AD000200CE0B0F5607FFAD10B4B77
S214014970D3F88000C0F3011003E0084B186FC0F3B2
S214014980033001307047054BD3F89000C0F3046044
S214014990F7E7024B186FC0F38020F2E70080005063
S2140149A04FF400320E4B014610B500209A66FFF711
S2140149B0CDFF41F6713248430A490B4B88428CBF02
S2140149C04FF480100020DC69DA639A6822F4401202
S2140149D002439A60E20344BF0022DA6310BD00BFBF
S2140149E000900050005A620200000350420910B5C0
S2140149F010D0012A10D00B4B0B4C022A18BF2346AD
S214014A0000F01F0051B103F58053012202FA00F0B5
S214014A10186010BD1346F3E7044BF1E703F50053A6
S214014A20F3E700BF68800050608200506480005049
S214014A3008B580201EF0CBF9034B98429EBF4FF479
S214014A408032024B1A6708BD005A620200A000506D
S214014A501FB50023B0F5807F019377D028D838287A
S214014A6000F094800BD82438092810D809280ED8CD
S214014A70DFE800F0676767670D0D620D377D522826
S214014A805FD008D83D283BD03E2800F084800198AE
S214014A9005B05DF804FB8028F9D1414B1B6F03F08C
S214014AA00703013B032BF2D8DFE803F044413F6CD8
S214014AB0B0F5D06F5BD019D8B0F5A06F66D00AD824
S214014AC0B0F5806F3DD0B0F5906FE0D1002001A920
S214014AD0FFF73EFEDBE7B0F5B06F2DD0B0F5C06F47
S214014AE0D5D1002001A9FFF767FED0E7B0F5006F2A
S214014AF0ECD00AD8B0F5E06F4DD0B0F5F06FC6D166
S214014B00002001A9FFF7CCFEC1E7B0F5086FBED1C2
S214014B10234BD3F8003103F00303022B2CD0032BD5
S214014B202ED0012B30D1FFF77BF8032300E00523BD
S214014B300193ACE70223FBE7002001A9FFF7E6FD9E
S214014B40A5E7002001A9FFF7BDFDA0E702934FF0FE
S214014B50E0231B695B0705D5FFF74CF80C2303938D
S214014B60039BE5E703A902A8FFF726FEF8E7002066
S214014B7001A9FFF745FE8AE7FFF76CF80823D7E798
S214014B801EF025F80723D3E70123D1E7002001A96A
S214014B90FFF7AAFE7BE7002001A9FFF75DFE76E797
S214014BA0008000504FF40022034B5A66012203F5A1
S214014BB080439A62704700BF0090005008B5FFF727
S214014BC047FF082811D00938012811D84FF40012E0
S214014BD0094B4FF6FF705A6603F5D8335B6A13F03C
S214014BE0010F18BF4FF4FA7008BD044B1888FBE795
S214014BF04FF6FF70F8E700BF009000508E0D0020C2
S214014C0070B504468020FFF723FF032800F082805A
S214014C104FF40022444B02215A6645F60E03434ADE
S214014C20C2F88030424B9962012103F580539962A4
S214014C30936DD903FCD4D4E900131B0543EA016341
S214014C40E17B94F822500B43217B94F8236043EADE
S214014C500143617B43EA0133A17B43EA811313617C
S214014C609169D4E904031B0643EA806301F000411D
S214014C700B43A17EE07E0B43217E43EA0143617E26
S214014C8043EA01239361E369126A002B0CBF0021FA
S214014C90082122F00D0242EA030242EA8002234B77
S214014CA042EA01021A6294F820204FEA421232D1F7
S214014CB0986A94F8211020F0330042EA0112024368
S214014CC042F001029A621B4A996D32EA0101FBD158
S214014CD0022217498A621A659A6D5200FCD4186935
S214014CE0A26820F4700040EA02504FF000421861BA
S214014CF00F4B9A611DB9022203F580539A6216B9C9
S214014D0001220D4B9A6294F824301BB1074B0B4AD3
S214014D10C3F8802070BD996A21F0330131430A43FC
S214014D2042EA4502EEE700BF0090005000C0005086
S214014D3000D000500300014000E00050F1A7FFFF43
S214014D401E4B13B5996A9A6D12F4803F18BF012461
S214014D501B4A18BF9462022494629B6DDB0303D541
S214014D60164A936D9C07FCD50222154B134C1A6507
S214014D70A36D5B00FCD4134BA26993F9003022F4B7
S214014D807F020344000222F47F4280B283F30803C9
S214014D90104340EA0340A06102200191FFF7C2FDE3
S214014DA0A36D019913F4803F05D0012002B0BDE840
S214014DB01040FFF7B7BD02B010BD00BF00C00050E5
S214014DC000D0005076290020014B93F9000070476F
S214014DD07629002001221248124B816A9A62826D5E
S214014DE002F00302032AFAD102229A621A650C4BD8
S214014DF09A6D5000FCD401209A6D0A4A10659A6D8E
S214014E009207FCD4064B9A6D9007FCD50220054A02
S214014E1010659A6D9207FCD50320FFF783BD00BF8E
S214014E2000C0005000D00050F0B5D0E901434FF467
S214014E3080061A4A4178057856664FF4D1560227FD
S214014E4002F5B8325662164E4F2977604FF00107C9
S214014E5028BF4F2106F5805677601669F603FCD405
S214014E6041EA052151611B01417B43EA04230B43BF
S214014E70017B43EA41039360C37B817B1B0143EAC9
S214014E804113417C0B43017C43EA41035360837C1D
S214014E9013B16FF4D1535362F0BD00BF00900050C0
S214014EA000100250014B1880704700BF8E0D002085
S214014EB0014B1880704700BF8C0D00204FF4001284
S214014EC008B5184B5A660223174A5360936813F4C1
S214014ED08033FBD1012822D1FEF7A2FE134B984264
S214014EE015D003F5122303F5F863984213D0104B3F
S214014EF000EB8002400AB3FBF0F0520A0A4BDA627A
S214014F00012218635A620022074B5A6008BD45F613
S214014F107A10084AF2E745F61A00074AEEE75362A6
S214014F20F1E700BF009000500040025000F0490237
S214014F3064666666D8B80500BBCF0500B0F5207F6D
S214014F4010B50C4642D008D8B0F5007F33D003D850
S214014F5088B1B0F5C07F0ED010BDB0F5607FFBD133
S214014F601F4B013CD3F8801021F0300141EA0414B4
S214014F70C3F88040F0E71DF022FF1DF0EBFF4FF471
S214014F808031184A164B1167196F013C21F47041A4
S214014F9041EA04341C67FEF72DFE0446FFF786FB44
S214014FA0C0F1020120461DF0CFFF00F02DF8BDE84C
S214014FB01040FFF73DBD0A4B013CD3F8901021F09D
S214014FC0F85141EA0464C3F89040C5E7044B013C3C
S214014FD0196F21F4806141EA84241C67BCE700BF95
S214014FE0008000500090005008B50121022000F01A
S214014FF021F91DF0E4FE1DF0ADFF4FF48032014BA8
S2140150001A6708BD0090005008B54FF4C0701DF037
S214015010DEFEBDE80840044988428CBF022101211A
S2140150204FF42070FFF78ABF80F0FA020028ABBF6A
S21401503000F16040054B00F5614000F00F00ACBF89
S21401504090F80003185C0009704700BF14ED00E0FB
S214015050034B5868C0F30800003818BF012070479A
S21401506000ED00E0054B420953F8223000F01F0026
S21401507023FA00F0C04300F00100704700E100E0B1
S214015080014608B5EFF31083DB0702D5012210466F
S21401509008BDFFF7E7FF02460028F7D10846FFF7ED
S2140150A0C5FF0146EFF3118313B1B0EB131FEDD229
S2140150B0074B5B68C3F30803002BE8D0103B58B2DC
S2140150C0FFF7B4FF88428CBF00220122DFE700BF52
S2140150D000ED00E0194B10B51B6873B3184A52680F
S2140150E0012A2AD0174A8020C2F80031FFF7B0FC07
S2140150F005281FD14FF4C070FFF728FC012804468D
S21401510004D102214FF4C070FFF718FF07220E4B9F
S2140151101A610122A3F580535A60094A1369DB0715
S214015120FCD5012C09D12146BDE810404FF4C070D2
S214015130FFF704BF0122054B5A6010BD201C00205A
S21401514000C001500080005000E0015000D0015026
S21401515000224FF40031074B1A60074A516602F5E8
S21401516098325268012A02BF044AD2F800211A6016
S214015170704700BF201C00200090005000800050A7
S214015180044A4178536F23F4407343EA012353677B
S214015190704700BF0040005010B5044608B1FFF745
S2140151A0D7FF0E4A136943F00403136103F0C0F8F6
S2140151B01DF0FAFE1DF0E8FE29F092FA1DF0E8FE59
S2140151C01DF0F3FE03F0C8F81CB1BDE81040FFF770
S2140151D081BFBDE81040FEF70DBD00BF00ED00E049
S2140151E010B5044608B1FFF7B3FF0C4A136943F044
S2140151F00403136103F09CF81DF0C6FE29F070FA53
S2140152001DF0C6FE03F0A8F81CB1BDE81040FFF77C
S21401521061BFBDE81040FEF7EDBC00BF00ED00E049
S214015220034A0179D36E23F030030B43D3667047EC
S21401523000400050F8B504461C4BD3F88420D10634
S214015240FBD4D3F88430C3F381139C422CD0FEF7F1
S214015250B7FC012C064602D121461DF075FE1DF055
S21401526093FE4FF00072124B07465A6620461DF019
S214015270A1FE4FF480630D4D621E93402B676B6E4B
S2140152809A0103D4D5F884309B060AD538461DF01A
S2140152907FFE022C08D13046BDE8F84000211DF003
S2140152A053BED5F88430EAE7F8BD00BF0040005091
S2140152B00060005007B518B90191FEF781FC01990D
S2140152C0064B1B7843B1064B984205D8012003B024
S2140152D05DF804EBFFF7AEBF0220F8E77729002060
S2140152E0005A62020278034B012100201A70FFF770
S2140152F0E1BF00BF772900204FF00042012138B5F9
S214015300274B5A6603F50C2359604AF6CD33254AD6
S214015310556C13640D4048BB94680C4009D0224B71
S214015320224C9960D36ADB0710D4A0420CD14FF00F
S214015330FF3401221C4B5A6015B11A4B1C4A1A64E1
S21401534028F02AFB204638BD0130EBE7A0424FF09B
S214015350FF3418BF0024ECE70131D36A13F00803C9
S21401536007D08142F8D16FF00104E5E700210F482C
S214015370F3E78142F7D020210B4A51620121A2F5C1
S214015380805291600749094A486A800603D49342CD
S214015390E9D00133F8E79342E5D00024CCE700BF1B
S2140153A000900050004009500060095040420F0034
S2140153B03254FFFF4FF0004238B5194B194C5A666C
S2140153C0012203F50C235A604AF6CD33656C23643B
S2140153D04378154093401343134AD363A3688278F6
S2140153E023F0740343EA0213C278002A14BF04228E
S2140153F000221343A3600279837943EA02232361DF
S2140154004279C37943EA022363610078FFF774FFA8
S2140154100DB1064B236428F0BFFA012038BD00BF4A
S2140154200090005000400950004000503254FFFFE9
S214015430F8B504460D461F4616464AB101238B4071
S2140154403021194A01FB0022FFB141F210015350ED
S21401545004EB4403072D4FF00F014FEA031317D84F
S214015460A80006FA00F28140104818441DF0A3FD7A
S21401547056B9012130230C4801FA05F503FB040057
S21401548077B141F21003C550F8BD42F21001DEE7D4
S214015490A5F10800800006FA00F281400448E4E71E
S2140154A042F21003EFE700BF00C0035004C00350F0
S2140154B00CC003504FF400120B4B10B5C3F88020FC
S2140154C0BFF34F8FBFF36F8F0024FF22074B214698
S2140154D05C6520209A625C60FFF788FA2146BDE889
S2140154E010402120FFF782BA00E100E000000450DE
S2140154F0044A054B002918BF1346012202FA00F0A0
S21401550018607047402004504010045010B5012127
S21401551004462020FFF76AFA01212120FFF766FAE8
S2140155200122114B5A60227812069A606178A2789D
S21401553042EA01429A61FF229A6200229A631A6441
S2140155404FF000425A654FF0FF324FF4001103F559
S21401555000531A65054AC2F88011E3781B01DBB2D5
S21401556082F81533116010BD0000045000E100E020
S2140155702DE9F04101250C46C3B2DFF888E0D1F8E9
S21401558000809D408F7ACB7A94F80DC0097BCEF8C7
S21401559050500EF5005E4EF820804FF0300E184E3B
S2140155A01B050EFB006043EA074343EA415322F022
S2140155B00302C0F860C0C36502671DF0ECFC736DA2
S2140155C02B437365237A13B1336C2B433364637AAD
S2140155D013B1B36B2B43B3632279A37943EA024336
S2140155E0084A93616179E37943EA014306498B618D
S2140155F0034B55639D64BDE8F0411DF0D2BC00BF6E
S21401560000000450002004500010045010B501247E
S214015610C0B284401DF0BFFC044B5A6D22EA04025E
S2140156205A659C62BDE810401DF0BBBC00000450EA
S21401563010B50124C0B284401DF0ADFC074BDA6AF8
S214015640224209D15B6B34EA03030CBF0124002418
S2140156501DF0A7FC204610BD0024F9E70000045009
S2140156604FF40032054B9A6641F6713203F51C334E
S214015670DA63012203F50053DA60704700900050A8
S21401568041F671320121064BDA6303F50052D1600F
S2140156900022DA634FF40032A3F518339A66704796
S2140156A000000350CB784A7810B55B010C7843EACA
S2140156B082030A79234343EA02130C22424302F18E
S2140156C0B0421363012C02BF8A78024B43F82020B4
S2140156D010BD00BFE880035008B54FF0B0435A68CC
S2140156E002B960B15B680BB11DF077FC4FF0B041B9
S2140156F030B10120074B58601DF06FFCC86008BD33
S2140157001DF06BFC0223CB601DF067FC0122024BEF
S2140157105A60F4E700100058002000584FF0B043DC
S2140157205B6870B50BB11DF058FC0121104B457834
S214015730596083780679002BC37814BF02240024AD
S214015740002B14BF042200224379DB0043EA061330
S2140157502B43234313434FF0B0429360054B5960EC
S2140157600378002B14BF0B460223D36070BD00BF25
S21401577000200058001000584FF48032064B5A663D
S21401578003F5E6235B69C3F38512827003F03F02DB
S2140157901B0B42700370704700900050014B986CD1
S2140157A0D96C70470080E00F024B1868C0F30740C1
S2140157B0704700BF0080E00F0120034B9B680A334F
S2140157C003F01F03984070470080E00F70B5054650
S2140157D016461C4621B94FF420701DF0F8FA014612
S2140157E0402C1BD003D8DCB1202C1BD070BD602C04
S2140157F0FCD1042303FB06F2560806EB4113B3FB68
S214015800F2F3094A203B02EAC303AA6822F06002C7
S214015810AA60AA681443AC60EB61E7E70623E9E7F0
S2140158201023E7E70823E5E7F8FF7F00012200F5EC
S214015830805310B55A6040F6AA6341F205024361EF
S21401584000230E498360C365C26000F50052036100
S214015850C361C36491640A498365884202D0094CD6
S214015860A04207D18842036502D0064B984201D177
S214015870002343650123536010BD00BFFFFF0100F5
S21401588000C005500000065070B50D46FFF7CEFF6C
S214015890012300F580567360AB7C04461BB1836818
S2140158A043F080438360EB7C5BB1354A2B7D9442A9
S2140158B045D1A2F51032C2F88C31E36D43F0800376
S2140158C0E3652A8A6B7B20461343EA891343E36028
S2140158D02B7BD5E90112FFF779FF6B7D1BB1A3681E
S2140158E043F48033A360AB7D1BB1A36843F400434C
S2140158F0A360EB7D2A7E1B07120502F4E00203F08B
S214015900E0431343A365697E1D4A8B1E012B1D4B85
S2140159101FD894421BD002F5804294420CBF01224C
S2140159204FF0FF3203EB4213022041F21C620329BF
S214015930985020D10423F3652B78636170BD124A19
S214015940944204BFA2F52032C2F89C31B5E700228A
S214015950E8E794420DD00C4A94420CBF01224FF066
S214015960FF3203EB4213022042F21C6201299850D7
S214015970DFE70022F5E7042204F50053DA65DBE7EA
S21401598000C0055000C003500000065038B50D4653
S214015990FFF74CFF0122A97B00F580535A602A8A43
S2140159A08368002914BF4FF48061002142F0010290
S2140159B013432A7D0B43002A14BF4FF000520022E6
S2140159C083608368044613438360AB7C5BB11D4AE6
S2140159D0EB7C90422DD1A2F51032C2F88C31E36DEA
S2140159E043F08003E3652B7B2046D5E9011243F49F
S2140159F08053E3601DF0F9FA6B7B0BB110236361F2
S214015A006B7D1BB1A36843F48033A360AB7D1BB1F0
S214015A10A36843F40043A360EB7D2A7E1B071205AF
S214015A2003F0E04302F4E0021343A3652B786361BD
S214015A3038BD054A904204BFA2F52032C2F89C3117
S214015A40CDE700BF00C005500000065038B504463B
S214015A50054D27F0C8FF0FCC0FC594E8030085E875
S214015A600300002038BD00BF241C002047F6FF734A
S214015A709A42F0B566D0012966D8344DCF0015F8A4
S214015A80313005EBC100012B847813D10025C37892
S214015A901B1B9D4202D3E018C0B2F0BD591B4668DD
S214015AA0A3EB510136F911609642D4BF0D4601F1C0
S214015AB0FF33EEE740680028EFD0B0F9003093429C
S214015AC004DBB0F902309342B8BF134682883D44E6
S214015AD0FF2A19BFC8214FF0280CB0F90610B0F9FB
S214015AE008C0A1EB03020CBF0126002692FBFCF2C4
S214015AF06D78324412B2954201DD002A01DA6A1E3F
S214015B0012B24FF47A7700EBC206F188B66801321A
S214015B1013FB016112B221EAE1715C319542B1FBDE
S214015B20F7F104DD00EBC206B6888E42EBD200EB3D
S214015B30C20232F8040C884228BF0846A04238BF89
S214015B402046A9E7FF20A8E70020A6E7241C00209E
S214015B500129F0B553D82B4800EBC10410F83110D9
S214015B60636801290FD1E078A478904294BFC4EB12
S214015B700001C4EB0201001BCAB28242C8BF002268
S214015B8033F91200F0BD002B39D0A178914202D32F
S214015B90B3F90200F6E7E178B3F900009142F1D9D2
S214015BA099886478A1F1FF06013C714203F104056E
S214015BB0E4B2714103F10C071FFA82FCCEB2B44283
S214015BC016D805EBC1014FF47A756A43B1F9024064
S214015BD04968521A04EBD47102EB610292FBF4F2AB
S214015BE09042CFDBB3F902009042CBDC10B2C9E79A
S214015BF037F831E04E1CE645E3D33146DEE702488E
S214015C00C0E700BF241C00200080FFFF08B5044841
S214015C10FFF71CFFBDE80840012027F0E8BE00BFE3
S214015C2054FA030000487047900D00207FB5022209
S214015C30084B0949CDE901234FF00073CDE9031361
S214015C40052301A94FF0FF30059327F006FF07B0A3
S214015C505DF804FB006A1800000204001B0603F04E
S214015C60706300F00F000902034301F4706112042F
S214015C7002F470220B431343014A1360704700BFBE
S214015C800020025C60B5054619B10139B1F5806F97
S214015C9010D2094EF06810F48030FBD143EA01219E
S214015CA0120741EA050302F08052134343F0004312
S214015CB0736060BD0120FCE70020025C0122054BF9
S214015CC09A60DA68D203FCD4D86820F00F0000048A
S214015CD0000C70470020025C014B1868704700BF3B
S214015CE00040025C014B5868704700BF0010025C20
S214015CF0014B186B704700BF0010025C014B18681F
S214015D00704700BF0010025C014B9860704700BFEF
S214015D100010025C014B1864704700BF0010025C63
S214015D20014B5864704700BF0010025C014B58637A
S214015D30704700BF0010025C0022014B1A607047DA
S214015D400010025C024A136843F0010313607047B7
S214015D500010025C43F20402014B1A60704700BF58
S214015D600010025C024A136843F030031360704768
S214015D700010025C044B1A6842F480721A601A68BA
S214015D8022F480721A6070470010025C024A13689F
S214015D9043F48063136070470010025C034A136883
S214015DA023F4702343EA0040106070470010025C41
S214015DB0044B1A6902605A6942609A698260DB691B
S214015DC0C36070470010025C0268044B1A614268A7
S214015DD05A6182689A61C268DA6170470010025C93
S214015DE0024B1A6BD207FCD4186270470010025C93
S214015DF0024B186B00F00E00704700BF0010025CEB
S214015E0082B01FB507930A9B04AC8B4228BF0B4692
S214015E1004E907001048D100079948BF0333016021
S214015E20099948BF23F0030323F0704301F0E041D2
S214015E30194341F000518160002102F0E042019CCB
S214015E40134343F00053C16004618361416304B0AE
S214015E50BDE8104002B070470000025C3F22034BD1
S214015E601A631022DA6103229A6370470000025C0B
S214015E70024AD36B9B07FCD4704700BF0000025C4C
S214015E80034B986A10F0240018BF0420704700BF27
S214015E900000025C08B5FFF7F3FF064BDB6B23F44B
S214015EA07F4323F0EF0303431EBF0122024BC3F8D7
S214015EB0FC2F08BD0000025C00F0FF3F032208B57E
S214015EC0054B186019615A63FFF7C8FFFFF7D0FF4B
S214015ED0BDE80840FFF7DEBF0000025C42680346EB
S214015EE0182A10B50AD0202A1DD0102A2BD1174AFD
S214015EF0D2F80424D4010AD4012013E0134AD2F8BC
S214015F0004249001F8D50A6842F008020A60104895
S214015F101A6882424FF000000ED10A6842F0400231
S214015F200A60586010BD094AD2F804245201E3D52C
S214015F300A6842F00402E9E7064CA242F2D10A6876
S214015F4042F08002ECE70720ECE700BF0000025CAD
S214015F5078290020792900200B4607B50749D1F892
S214015F600414C90708D5002100920246084600F02D
S214015F705BF803B05DF804FB0120FAE70000025C61
S214015F801346064AD2F80424D20504D50A46014629
S214015F9000201DF04EBA0120704700BF0000025CD1
S214015FA013B5084CD4F80444E40508D50093134609
S214015FB00A460146002000F061F802B010BD01203B
S214015FC0FBE700BF0000025C13B5084CD4F804449C
S214015FD0E40508D5009313460A460146002000F062
S214015FE071F802B010BD0120FBE700BF0000025CA3
S214015FF070B504460D4616468CB00A4A09AB07CA68
S21401600083E807001A462146CDE90563CDE9033347
S214016010CDE9013300954FF480301DF02EF90CB018
S21401602070BD00BFC0F10300F0B51C465B681546A5
S2140160308DB01A07129E1AD1CBB17268934216D14F
S2140160400C4B0D4A53F8217009AB07CA83E80700C9
S2140160501A462946CDE90533CDE90333CDE9016377
S214016060009447F480701DF008F90DB0F0BD0720CC
S214016070FBE700BFCCF10300C0F10300F0B5164604
S2140160805A688DB0102A0D46129F15D17A68102ACB
S21401609012D10A4A09AC07CA84E8070022462946F3
S2140160A0CDE90547CDE90344CDE90144044800960E
S2140160B01DF0E3F80DB0F0BD0720FBE7C0F10300CB
S2140160C030000100F0B516465A688DB0102A0D460C
S2140160D0129F15D17A68102A12D10A4A09AC07CA4A
S2140160E084E8070022462946CDE90574CDE9034434
S2140160F0CDE90144044800961DF0BFF80DB0F0BD8F
S2140161000720FBE7C0F103001000010082B070B564
S21401611086B0149D03AE202D86E807000B9359D850
S21401612005EB85038B4203D006236B438B4253D189
S2140161300C9BAB4250D10F9BB3EB450F4CD1129A3F
S214016140934249D1012229462220159BFFF79AFD49
S214016150044630BB034606220E210C20FFF77EFDC7
S2140161600123CDE900332B4696E807001DF022F8FF
S2140161700E230BAA009307CA2B461CF066FF0C23BE
S214016180164C00930EAA2B4607CA1CF08EFF6368B6
S21401619023F07F0343F026036360FFF78FFD30B1E2
S2140161A00624204606B0BDE8704002B0704763681A
S2140161B023F07F0343F022036360FFF77FFD04466D
S2140161C00028EDD1062311AA009307CA2B461CF01E
S2140161D09FFFE6E70124E4E70724E2E70020025CEC
S2140161E070B598B0002843D02C4C08AD0FCC0FC525
S2140161F00FCC0FC50FCC0FC594E80F0085E80F0034
S2140162006D4604AE04F1100320340FCB85E80F0071
S21401621094E80F0086E80F00FFF7ACFD0420FFF7B7
S214016220BDFDFFF797FD3046FFF7CEFD002408AE13
S21401623056F8040B0134FFF7D3FD102CF8D1FFF705
S21401624051FD0328FBD90024FFF776FD2646FFF70C
S21401625043FD55F8043B01365840042E44EA000439
S214016260F5D12CB1012206200D4B1A7018B070BD65
S214016270FFF780FD0820FFF747FD0020FFF74AFDE6
S2140162800720FFF74DFD4FF40070FFF74FFD082084
S214016290FFF784FDFFF756FD0020E7E7A8F20300AD
S2140162A07B29002008B5FFF765FD0122014B1A7016
S2140162B008BD00BF7A29002030B589B005AC84E856
S2140162C00700FFF715FDC30501D5FFF7EBFF0A4DE4
S2140162D02B781BB11DF028FA00232B70074B069A6A
S2140162E0D3E901018DE8030002921B6894E80700D8
S2140162F01DF023F909B030BD7A29002008F3030008
S2140163001FB51DF011FA044630B1012206240D4BCB
S2140163101A70204604B010BDFFF7DEFC0090FFF7B0
S214016320DBFC0190FFF7D8FC0290FFF7D5FC039049
S2140163306846FFF749FDFFF7B5FFFFF713FDFFF7C7
S21401634025FDE6E77B29002005289ABF014B185C4E
S2140163500020704714F3030030B5154B87B0029345
S214016360144B0390049346F611030D46059300F073
S2140163706DF91428044616D168461DF08DFA4FF0C3
S214016380A843032202A95A6319601D619A63DA6B56
S2140163909207FCD1142C02D168461DF08BFA00F04E
S2140163A089F9044601E00028E9D0204607B030BD4F
S2140163B03C1C0020040000202DE9F04FB1B005463A
S2140163C08C46E9466E4F3B9EDDF8F8E0409C07F1AF
S2140163D0100AC846386879680837A8E803005745A0
S2140163E0C146F6D10EEB0208C8F1000909F00F0903
S2140163F0002E00F0AF80774207F00F070121DDF88D
S214016400FCB0C4F1100ACDF810B0059144F000516B
S21401641006914FEA0A2101F4F85141F02101079152
S21401642006B96B460893002D40F09680002C00F0CC
S214016430938004AB0993002E00F0908046F0005341
S2140164400A93002D40F08D80002C14BF01232123D8
S21401645043EA07230B9308A942F00053CDF830C056
S2140164603D980D910E934FEA092343F041030F9394
S214016470109002B10CA9002A16BF00224FF000525C
S214016480412342EA0E021191129213933C9B3D4A1C
S214016490149310AB15933C4B0021169340F6110351
S2140164A017933A4B002D08BF1346189314AB199354
S2140164B0374B10221A9311231B931CAB184627F057
S2140164C08EFF01221D924AF080421E920022034650
S2140164D0239205B9EB46102C08BF01230DF1900A53
S2140164E0102200215046CDF880B02193229427F047
S2140164F076FF002C37D020AB002125938F4218BFA2
S214016500534647F0804226923A9A2CA88A4228920D
S214016510299313460CBF4FF080430B46102233439A
S2140165202B912A9327F05BFFFEB95346C8442D935F
S2140165302CA948F0804318A82E93FFF70DFF30B919
S2140165402DB90346A34212D1002818BF2C2031B022
S214016550BDE8F08F102751E701236BE747F00053A2
S2140165606EE7212374E70123C6E728ABDEE703F1D4
S214016570C0026A4412F8C02C01331043E2E700BFA0
S2140165801AF303002CF303001000002030F303007D
S21401659004000020F0B5C0299FB0249E4FD0B1F56D
S2140165A0807F04D0802941D029201FB0F0BD40F261
S2140165B0344440F21445002E08BF2C4621271025EE
S2140165C0019401240296039404950597259F069746
S2140165D006B102AC07940124089509940A92212277
S2140165E00B940C950D92174A0AAC0E92164A0F940C
S2140165F0109242F611021192129313941495159269
S21401660001AA1692CBB112AB179304231893112348
S214016610199316AB1A901B9340F61103C9081C91E7
S2140166201AA806A91D93FFF797FEBEE7002E14BF12
S2140166304FF486644FF48264C0E70EABE4E70F20A4
S214016640B3E700BF34F303001000001038B5164B53
S2140166505A6E42F004025A66D3F8802242F00102D2
S214016660C3F88022114B5B68C3F3080343B14FF0B4
S214016670A842D36B13F0430FFBD11424204638BD38
S2140166804FF0A843DC6B14F04304FBD1084D2B6894
S2140166901BB90421284602F04BFD2B68013343F059
S2140166A000432B60EAE700BF0080005000ED00E0E9
S2140166B03C1C0020014B00205B68704700ED00E0A9
S2140166C04FF40052034B00209A660322C3F860225F
S2140166D0704700BF0090005008B5FFF70FFBC307D7
S2140166E008D5FFF785FB062804D00A28F5D1FFF761
S2140166F0D9FDF2E74FF40052034B00209A660322BD
S214016700C3F8602208BD00BF00A000501FB54FF4BB
S2140167100052164B9A660322C3F86022FFF7EEFA80
S214016720C30710D401201DF00CF8002814BF6FF029
S21401673092040024FFF7D0FF00280CBF20466FF01C
S214016740920004B010BD10220021684627F047FED3
S2140167506846FFF72DFBDDE900321343029A134327
S214016760039A1343DED00024E4E700BF00900050F4
S214016770012300F01F02A0F506200949A0F550608C
S2140167804009934051F820201A4341F8202005493A
S21401679051F8202022EA030341F82030704700BF59
S2140167A0401C0020541C00200121A0F506230F4A9E
S2140167B0A3F550635B0900F01F0001FA00F052F8E0
S2140167C0231008430A4942F82300D1E90030034464
S2140167D088680344C868096903445B1802BFC2E9B4
S2140167E00033C2E902331361704700BF541C002016
S2140167F0401C00202DE9F04FA9B002921F46DDE9AA
S214016800328904460822CDE90301414021FA02F308
S2140168104B40980702F1080218BF9B00202A1C442F
S214016820F4D18123B4FBF3F303EBC313E41A784BDF
S21401683004F506241B7804F55064002B3CD1FDF7C3
S21401684023FD014620B16FF0910029B0BDE8F08F1D
S2140168504022059008A827F0C2FD4022059918A8F5
S21401686027F0BDFD6B4EDFF8C4A1334603F10F0BD5
S214016870102208A9DAF80000CDF800B0059326F03A
S2140168804FFE00220146059B103608AD914244D1C9
S214016890CDF800B01022DAF8000018A926F049FE5B
S2140168A04FF0000B034618AD5B4542D15A4B9E4252
S2140168B0DBD10122564B1A7081250026DFF86CA128
S2140168C0A4F50623554AA3F550635B0952F8232025
S2140168D004F01F01CA40D2073ED4514A52F82300A1
S2140168E0C84010F001002DD0002E08BF2646812397
S2140168F0A4F50724A4F2FF44B4FBF3F303EBC3139C
S214016900E41A04F50624013D04F55064D8D1029B2F
S214016910D3B1CEB1349B1E6063E055F8040BCDE9CC
S21401692006230591FFF724FF069A079B0599013276
S214016930ACE755F8040B05930BF1010BFFF734FF99
S214016940059BB1E7029B13B96FF08B007DE7349B83
S214016950002E45D01E6078E7B8F1000F02D0002364
S214016960C8F80030B9F1000F02D00023C9F8003092
S2140169704FF0100B00233A462146DAF80000CDF816
S21401698000B013F05FFF70BBB8F1000F01D0C8F87C
S21401699000B03B68234A93422FD1B8F1000F11D0C3
S2140169A0B9F1000F0ED04B462146DAF8000018AABE
S2140169B013F09CFFB8B9D9F80030D8F800209B1A1C
S2140169C0C9F80030D7E90223DDE90310834208BF86
S2140169D08A428CD1029B13B17B68012B15D0349B64
S2140169E01C60002031E7104B984206D012339842C3
S2140169F003D0133B9842E5D025E72146DAF800009C
S214016A0013F0BAFF0028DDD09EE76FF084001CE784
S214016A107C290020006D080000710800401C002041
S214016A20541C0020105D175EFFDF00F0080B0020ED
S214016A302DE9F04F87B08246894698461646DDF81E
S214016A4040B02AB1002B4ED040F26C739A424DD81A
S214016A50BBF1010F4DD8002406F11007394601207D
S214016A6005941DF0ADFA0546002845D021463A4664
S214016A7027F0B5FC05ABCDE9014300942B46012276
S214016A8050464946FFF7B6FE044680B110F18C0F1A
S214016A9008BF6FF08D043A460021284627F09FFC78
S214016AA028461DF09EFA204607B0BDE8F08F144B2D
S214016AB0C5E902A92B60C5F804B02EB1324641469D
S214016AC005F1100027F064FC0E483B462A4605995E
S214016AD0006813F01FFE18B90598FFF749FEDAE7BC
S214016AE06FF09104D7E76FF08604DCE76FF091044E
S214016AF0D9E76FF08504D6E76FF08C04D3E700BFC3
S214016B00105D175E080B00202DE9F0438DB081461D
S214016B10DDE914780C4615461E469BB1B8F1000F08
S214016B2005D16FF0860420460DB0BDE8F083002F36
S214016B30F7D0B7F1005FF4D3C3F1005303F5004378
S214016B409F42EED81022002108A827F048FC002218
S214016B5007AB029305AB019306AB2146009348466B
S214016B6008ABCDE90522FFF745FE04460028DAD139
S214016B700599DEB1A94203D80029D2D115B1D0E7D3
S214016B800029FBD0491BB14228BF3146069B094864
S214016B90C8F8001000913A46079900682B4413F094
S214016BA051FE002818BF6FF09104BCE7A942E9D254
S214016BB0B7E700BF080B002030B58DB00C46054680
S214016BC01022002108A827F00AFC002207AB029336
S214016BD005AB019306AB21460093284608ABCDE9E9
S214016BE00522FFF707FE0446D0B9099B012B1AD0F0
S214016BF0104B0799186813F0BFFEB8B90122079821
S214016C000D49A0F50623A3F550635B0900F01F05A7
S214016C10AA4051F823506A4041F82320FFF7C4FDEB
S214016C2020460DB030BD6FF08404F9E76FF0910493
S214016C30F6E700BF080B0020401C00202DE9F043BA
S214016C408BB01746DDE91545DDE913269C46DDE9DF
S214016C501738894621B96FF086000BB0BDE8F0837E
S214016C60002FF8D00EB9002CF5D1129909B9002AD7
S214016C70F1D10DB9002BEED1B8F1000FEBD0254ABA
S214016C80944544D10288B2F5105F40D14288B7EBF3
S214016C90D20FE0D322F04001802902D0B2F5807FE6
S214016CA0D9D11CB92046C8F80040D6E7AE421CD25E
S214016CB03219954219D29C42CDD8314622462846F1
S214016CC027F073FB2E4614F00F03C4D1CDE90197CC
S214016CD0CDE90336CDE90543CDE907540993FFF71E
S214016CE0EFFC38B16FF09200B7E79C42EBD96FF03A
S214016CF08900B2E707AA04A901A8FFF72DF90546FE
S214016D00FFF7EAFC2843EDD1C8F80040A5E76FF08D
S214016D108500A2E7004440042DE9F04FA9B0834660
S214016D2017469A460E46DDF8C890DDF8D88029B990
S214016D306FF08603184629B0BDE8F08F002AF7D019
S214016D40B9F1000FF4D0349B002BF1D0B8F1000F4D
S214016D50EED00024434B0CAD93E8070085E807000E
S214016D603C22214619A8189427F039FB32887188ED
S214016D7002F4E040B0F5804FDAD03B4E3B480BEAD8
S214016D80060646F01066864265D1B1F5807F62D16F
S214016D9047F212118A425ED106203549BAF11F0F19
S214016DA00A69CB6800FB02F209680B93CDE90C1265
S214016DB00E94BDD9339B402BBAD9359B1F2B4DD989
S214016DC009F1010220261292402299F800300F970D
S214016DD0042B18AFCDE91324CDE915721096119442
S214016DE01794A5D1FFF76CFC03460028A2D10B9B94
S214016DF015AACDE9086305AB07CA83E8070002AB0D
S214016E0012AA07CA83E80700DDE910018DE803002E
S214016E100F9B95E80700FFF779F90546FFF75CFC3D
S214016E2055EA000384D13D46349A20AE2C4603CC65
S214016E30B44210605160254602F10802F6D10022E4
S214016E401046B9180132412A03D12022C8F8002081
S214016E5070E70870F5E76FF085036BE76FF089035D
S214016E6068E700BFC0F103000000FFF6000002095A
S214016E7094F20300F0B50F461D468DB000285AD097
S214016E80002958D0002A56D0002B54D00388B0F8D9
S214016E9002C0194603F44F44B4F5824F18BF0023CD
S214016EA021F0FF01B1F5E24FDBB203D06FF08500B0
S214016EB00DB0F0BD122B01D0172BF7D10CF1070145
S214016EC0B2EBD10F4FEAD10638D31F4A06ACBCF558
S214016ED0807F07CA84E80700E8D1122B07D11B4B35
S214016EE01A691B681344CDE9063200230893002370
S214016EF0CDE909760B93FFF709FC0028D8D1FFF7F7
S214016F00DFFB0028D4D1124B1149059302AB049044
S214016F1083E803000CAB13E903008DE80300099B2B
S214016F2094E807001CF08FFA0446FFF7D5FB2043D0
S214016F3007D12E60BCE76FF08600B9E76FF08900D5
S214016F40B6E76FF09200B3E7C0F1030094F20300D6
S214016F50633703002DE9F0438FB01D46DDE916C601
S214016F60002863D0002961D0002A5FD0002B5DD0B5
S214016F70BCF1000F5AD0002E58D00388B0F802E0BA
S214016F801C4603F44F47B7F5824F18BF002324F081
S214016F90FF00B0F5824FDBB24ED0B7F5824F4BD132
S214016FA0122B01D0172B47D10EF10700B2EBD00FF1
S214016FB04FEAD0083AD34FEA4802571C674538D8FB
S214016FC0BEF5807F38D1122B18BF4FF000094FF065
S214016FD0000308BF1B4CCDE9081805F1010114BFD9
S214016FE04C46D4F80C90CDE90B120A930D93FFF79B
S214016FF067FBC0B9CDE9058902AB08AA07CA83E8D1
S21401700007000EAB13E903008DE803000B9B94E821
S21401701007001CF037FA0446FFF75EFB20430ED14B
S21401702004232B7037600FB0BDE8F0836FF0860045
S214017030F9E76FF08900F6E76FF08500F3E76FF088
S2140170409200F0E794F203002DE9F04389B00D4673
S21401705014461F46DDF8488020B96FF0860009B057
S214017060BDE8F0830029F8D0002AF6D0B8F1000F69
S214017070F3D0028802F44F43B3F5824F0CBF134698
S2140170800023DBB202D06FF08500E8E7122B01D0B7
S214017090172BF8D122F0FF02B2F5E24F40D1428819
S2140170A0C8F80020002A36D1E200C8F80020D8F837
S2140170B00020B2F5807FE6D1122B09BF384B0022A3
S2140170C01A681B6905EB040608BFD2180023184688
S2140170D0224412F801CD16F8011D0843B1EB0C014C
S2140170E00CBF4FF0FF3C4FF0000CB5420CEA030317
S2140170F043EA0103EDD10028AFD0002BADDA109B97
S2140171009C4249D822462946384627F041F9119B28
S21401711000201C60A3E70732B4EBD20FC7D09CE770
S2140171202A78042A99D1621ED2005208B2F5807FCD
S214017130C8F80020A7D1122B05F1010318BF4FF0A4
S21401714000094FF0400205934FF000030ABF144EAA
S2140171504E46D6F80C90CDE90623FFF7B1FA002883
S2140171607FF47DAFCDF80C90D8F800300733DB08FC
S214017170029308AB13E903008DE80300059B96E82C
S21401718007001CF028FA0646FFF7A6FA00287FF447
S21401719066AF002EB3D060E76FF089005FE700BFEF
S2140171A094F203002DE9F04F8FB00546DDE918A9EA
S2140171B093461E46DDF868801C9F09B300B3B8F1FC
S2140171C0000F1DD0E7B1BAF1000F02D1B9F1000FDF
S2140171D016D1284B26F47E129A4247D128461CF037
S2140171E09AFB0446B0BB6B88BBEBD30F4FEAD302C6
S2140171F006D316F47C1FC6F3054504D0102D03D91B
S2140172006FF0860426E010251B9B9D422BD8002399
S214017210CDE901121022CDE905930DF12809CDE93A
S214017220033ACDE90823CDF81C90FFF749FA044646
S21401723080B907AA04A901A8FEF7A2FE0646FFF731
S2140172404BFA044656B958B92A464946404627F0ED
S2140172509FF83D6020460FB0BDE8F08F6FF09204B6
S21401726000233B60F6E76FF08904F3E76FF08504CF
S214017270F0E700BF0002C0032DE9F041069F0C466F
S2140172801646054610B309B302B9FBB96288B3EBDB
S214017290D20F4FEAD20819D34C220021284627F0F4
S2140172A09EF80D4B27F47E129A4212D120461CF00E
S2140172B032FB044638B942463146281D27F068F8A5
S2140172C0C5F824802F602046BDE8F0816FF0860463
S2140172D0F9E76FF08504F6E70002C0032DE9F041F7
S2140172E00E4614460546002840D000293ED012B965
S2140172F00020BDE8F08103681F4823F47E13834213
S21401730037D1AF6BE7B1C7F1100807F12800424546
S214017310284404D227F03CF83C44AC63E8E74246F4
S21401732027F036F81022103C3C19AA63E0D0284614
S21401733005F128011CF00BFB0028DAD14644A863AE
S214017340102C0CD9671E27F00F073A4631462846FF
S2140173501CF0FDFA0028CCD1E41BC9D03E442246DD
S214017360314605F1280027F013F8D6E76FF08600BE
S214017370BFE76FF08800BCE70002C0032DE9F043C9
S21401738088461F4605468BB070B169B163B1036884
S214017390234923F47E1088423ED113F47C1FC3F3A5
S2140173A0054604D0102E03D96FF086042AE0102675
S2140173B096422BD8FFF784F9044618BBAB6B05F150
S2140173C02802CDE901236B6A2A1DCDE90423102387
S2140173D0CDE9083007AB1A460390069005F13C0943
S2140173E001A904A8CDF81C90FEF7EEFD0546FFF7AF
S2140173F073F904466DB928B932464946404626F027
S214017400C7FF3E6020460BB0BDE8F0836FF08904ED
S214017410F8E76FF09204F5E76FF08504F2E700BF36
S2140174200002C00307B56B46054A1068516803C3DE
S2140174306846FDF7BFFF002003B05DF804FB00BF00
S21401744038F3030013B50024064A6846536F43F029
S2140174500103536700948DF80440FDF7E1FE2046D2
S21401746002B010BD0040005030B58BB06C46174DD1
S2140174700FCD0FC40FCD0FC495E8030084E80300B9
S214017480134BD3F84C21120318D4D3F85041E4B26D
S2140174908DF81940FDF798FC204480F308008DF81C
S2140174A018000C48FCF7C2FB6846FDF7A9FB4FF431
S2140174B0FA70FDF7FDFC00200BB030BD064B1C88B2
S2140174C04FF6FF739C4208BF8C24E1E740F30300AC
S2140174D00080E00F00F049020001E00F30B5094DD1
S2140174E087B001AC0FCD0FC42B6801A82360192308
S2140174F08DF80530FDF798FC6420FDF7D3FC0020DD
S21401750007B030BD68F303006FF00402502110B5D8
S2140175100A480B4C12F0800FD3B21BBF03F00F03C7
S214017520043BA3181B1802F101020CBF83F80013D9
S2140175301976402AEED1002010BD00BF00ED00E014
S21401754000E100E010B504461BF01EFD024B1C6076
S2140175501BF01EFD002010BD681C002010B51BF09E
S21401756013FD034B1C681BF013FD204610BD00BF26
S214017570681C0020034B0222186800238068194605
S2140175801AF0E6BB0C0C002030B51446054687B051
S21401759010461CF0E6FA6369024683423CBFD4E912
S2140175A003315B181B1A7BB10F4928460391002152
S2140175B0CDE90131012304940093D4E900131BF0B3
S2140175C048FB002007B030BD0122627694F82D20DA
S2140175D0002AF6D084F835301321E369204698470F
S2140175E02046636A9847ECE7897501002DE9F04764
S2140175F088B004468846174699461BF0CCFC82465E
S214017600002F7AD0237E03F0FF02002B00F0A28029
S21401761020461CF0A6FA6669B04205D1637ED4E91D
S21401762003521544AD1B01E0F9D9851BBD4228BFA5
S2140176303D461BF0B0FC94F82D300646002B6DD16C
S2140176402A464046616926F0A3FE63692F462B440D
S214017650636121E0037803F0FD0111295BD1216B01
S214017660814205D1A3F111014B424B4184F83430DC
S214017670013F6369216B01328B4203F1010308BFAD
S2140176802363636195426069E4D1D4E90323216BE6
S2140176901344994200D122630025D4E9032361698A
S2140176A01344994208BF6261207A6576FCF708FDAB
S2140176B020461CF056FA6369834232D1257694F847
S2140176C02D30E568656103B125632046636A9847F6
S2140176D0214B2A46039300230293236921680193D1
S2140176E00123207A0093049463681BF0B2FA207A8F
S2140176F0FCF706FD30461BF054FC5046C9F80070F6
S2140177001BF04FFCD9F80030002B0CBF1B200020CB
S21401771008B0BDE8F08708F8013BAAE72F4600222B
S214017720B0E70123207A23760DF11E01FCF750FD08
S2140177309DF81E30002BDAD00DF11F01207AFCF7E0
S2140177401FFD9DF81F100029D1D12246207AFFF790
S2140177501BFFCCE71746D0E789750100002808DB38
S2140177600123420900F01F0003FA00F0014B43F821
S2140177702200704700E100E0002809DB01224309EE
S21401778000F01F0002FA00F0024A603342F82300BC
S214017790704700BF00E100E070B504460568FFF7DA
S2140177A0DDFE844202D10020FFF7CCFE95F93600BB
S2140177B0FFF7E2FF95F93630002B0DDB01215A0960
S2140177C003F01F0301FA03F31849203241F822306F
S2140177D0BFF34F8FBFF36F8F95F93700FFF7CCFFDD
S2140177E095F93730002B0DDB01215A0903F01F03F1
S2140177F001FA03F30D49203241F82230BFF34F8FCF
S214017800BFF36F8F287AFCF79BFC287AFCF7FEFB08
S214017810FCF7DAFB00232846C4E90033C4E9043345
S214017820A360AB6ABDE87040184700BF00E100E006
S2140178302DE9F0410C461546064686B04022002149
S21401784020461F4626F0CBFD95E8030000232A6953
S2140178502376EB6884E80300C4E904232A7DE36009
S21401786084F82C20AA7D2363012384F8343084F81D
S21401787035300C9B84F82D2023620D9BE7616362F3
S2140178800E9BA3622B7A84F836306B7A84F83730F5
S2140178902D4B346073602D4BB3602D4B33612D4BF4
S2140178A073612D4BF360FCF7D7FB38B12B4B984235
S2140178B004D01024204606B0BDE8F081002104F172
S2140178C00800FCF751FB07460028F2D14FF00108EB
